{
  "contractName": "RSASHA1Algorithm",
  "abi": [
    {
      "constant": true,
      "inputs": [
        {
          "name": "key",
          "type": "bytes"
        },
        {
          "name": "data",
          "type": "bytes"
        },
        {
          "name": "sig",
          "type": "bytes"
        }
      ],
      "name": "verify",
      "outputs": [
        {
          "name": "",
          "type": "bool"
        }
      ],
      "payable": false,
      "stateMutability": "view",
      "type": "function"
    }
  ],
  "bytecode": "0x608060405234801561001057600080fd5b50610d99806100206000396000f300608060405260043610610041576000357c0100000000000000000000000000000000000000000000000000000000900463ffffffff168063de8f50a114610046575b600080fd5b34801561005257600080fd5b506100af6004803603810190808035906020019082018035906020019190919293919293908035906020019082018035906020019190919293919293908035906020019082018035906020019190919293919293905050506100c9565b604051808215151515815260200191505060405180910390f35b6000606080600080606061011960048d8d8080601f01602080910402602001604051908101604052809392919081815260200183838082843782019150505050505061039e90919063ffffffff16565b60ff16925060008361ffff161415156101db5761017860058461ffff168e8e8080601f0160208091040260200160405190810160405280939291908181526020018383808284378201915050505050506103c59092919063ffffffff16565b94506101d46005840161ffff1660058561ffff168f8f905003038e8e8080601f0160208091040260200160405190810160405280939291908181526020018383808284378201915050505050506103c59092919063ffffffff16565b93506102ce565b61022160058d8d8080601f01602080910402602001604051908101604052809392919081815260200183838082843782019150505050505061043990919063ffffffff16565b925061026f60078461ffff168e8e8080601f0160208091040260200160405190810160405280939291908181526020018383808284378201915050505050506103c59092919063ffffffff16565b94506102cb6007840161ffff1660078561ffff168f8f905003038e8e8080601f0160208091040260200160405190810160405280939291908181526020018383808284378201915050505050506103c59092919063ffffffff16565b93505b61030b84868a8a8080601f016020809104026020016040519081016040528093929190818152602001838380828437820191505050505050610461565b809250819350505081801561038d575061033260148251038261047c90919063ffffffff16565b6bffffffffffffffffffffffff191661037c8b8b8080601f0160208091040260200160405190810160405280939291908181526020018383808284378201915050505050506104c2565b6bffffffffffffffffffffffff1916145b955050505050509695505050505050565b6000825160018301111515156103b357600080fd5b60ff8260018501015116905092915050565b6060806000808651858701111515156103dd57600080fd5b846040519080825280601f01601f1916602001820160405280156104105781602001602082028038833980820191505090505b509250602083019150856020880101905061042c8282876109e3565b8293505050509392505050565b60008251600283011115151561044e57600080fd5b61ffff8260028501015116905092915050565b60006060610470838587610a2e565b91509150935093915050565b60008251601483011115151561049157600080fd5b7fffffffffffffffffffffffffffffffffffffffff0000000000000000000000008260208501015116905092915050565b60006040518251602084019350604067ffffffffffffffc0600183011601600982820310600181146104f3576104fa565b6040820191505b50776745230100efcdab890098badcfe001032547600c3d2e1f0610555565b60008090508383101561054e578282015190508284039350602084101561054d576001846020036101000a03198082169150505b5b9392505050565b60005b828110156109635761056b848289610519565b855261057b846020830189610519565b6020860152604081850310600181146105935761059c565b60808286038701535b50604083038114600181146105b0576105c0565b6008850260208701511760208701525b5060405b608081101561064c5760408103860151603882038701511860208203870151600c830388015118187c010000000100000001000000010000000100000001000000010000000163800000008204167ffffffffefffffffefffffffefffffffefffffffefffffffefffffffefffffffe6002830216179050808288015250600c810190506105c4565b5060805b6101408110156106d957608081038601516070820387015118604082038701516018830388015118187c030000000300000003000000030000000300000003000000030000000363400000008204167ffffffffcfffffffcfffffffcfffffffcfffffffcfffffffcfffffffcfffffffc6004830216179050808288015250601881019050610650565b508160008060005b6050811015610935576014810460008114610713576001811461075d576002811461079a57600381146107fd57610836565b6501000000000085046a01000000000000000000008604189350836f01000000000000000000000000000000860416935083650100000000008604189350635a8279999250610836565b6a010000000000000000000085046f01000000000000000000000000000000860418935083650100000000008604189350636ed9eba19250610836565b6a010000000000000000000085046f01000000000000000000000000000000860417935083650100000000008604169350836a010000000000000000000086046f01000000000000000000000000000000870416179350638f1bbcdc9250610836565b6a010000000000000000000085046f0100000000000000000000000000000086041893508365010000000000860418935063ca62c1d692505b50601f770800000000000000000000000000000000000000000000008504168063ffffffe073080000000000000000000000000000000000000087041617905080840190508063ffffffff86160190508083019050807c0100000000000000000000000000000000000000000000000000000000600484028c0151040190507401000000000000000000000000000000000000000081026501000000000086041794506a0100000000000000000000633fffffff6a040000000000000000000087041663c00000006604000000000000880416170277ffffffff00ffffffff000000000000ffffffff00ffffffff8616179450506001810190506106e1565b5077ffffffff00ffffffff00ffffffff00ffffffff00ffffffff838601169450505050604081019050610558565b506c0100000000000000000000000063ffffffff821667ffffffff000000006101008404166bffffffff0000000000000000620100008504166fffffffff000000000000000000000000630100000086041673ffffffff000000000000000000000000000000006401000000008704161717171702945050505050919050565b60005b602082101515610a0b57825184526020840193506020830192506020820391506109e6565b6001826020036101000a0390508019835116818551168181178652505050505050565b600060606000610a3c610d53565b84518651885160600101019150610a5c8282610b3490919063ffffffff16565b50610a74875160010282610b8b90919063ffffffff16565b50610a8c865160010282610b8b90919063ffffffff16565b50610aa4855160010282610b8b90919063ffffffff16565b50610ab88782610bad90919063ffffffff16565b50610acc8682610bad90919063ffffffff16565b50610ae08582610bad90919063ffffffff16565b5084516040519080825280601f01601f191660200182016040528015610b155781602001602082028038833980820191505090505b50925084516020840183602084510160055afa93505050935093915050565b610b3c610d53565b6000602083811515610b4a57fe5b06141515610b6757602082811515610b5e57fe5b06602003820191505b81836020018181525050604051808452600081528281016040525082905092915050565b610b93610d53565b610ba583846000015151846020610bcf565b905092915050565b610bb5610d53565b610bc783846000015151848551610c4f565b905092915050565b610bd7610d53565b600085602001518584011115610c0257610c01866002610bfb896020015187610d13565b02610d2f565b5b6001836101000a0390508260200360080284600019169060020a900493508551838682010185831982511617815281518588011115610c415784870182525b505085915050949350505050565b610c57610d53565b600080600085518511151515610c6c57600080fd5b8760200151886000015151868901011115610c9e57610c9d886002610c978b602001518b8a01610d13565b02610d2f565b5b875180518860208301019450808988011115610cba5788870182525b60208801935050505b602085101515610ce85781518352602083019250602082019150602085039450610cc3565b6001856020036101000a03905080198251168184511681811785525050879350505050949350505050565b600081831115610d2557829050610d29565b8190505b92915050565b606082600001519050610d428383610b34565b50610d4d8382610bad565b50505050565b6040805190810160405280606081526020016000815250905600a165627a7a72305820795128d025e74157a2cc3626d53242464c4372ea14c67485e5f69d90c4ef70650029",
  "source": "pragma solidity ^0.4.23;\n\nimport \"./Algorithm.sol\";\nimport \"../BytesUtils.sol\";\nimport \"./RSAVerify.sol\";\nimport \"@ensdomains/solsha1/contracts/SHA1.sol\";\n\n/**\n* @dev Implements the DNSSEC RSASHA1 algorithm.\n*/\ncontract RSASHA1Algorithm is Algorithm {\n    using BytesUtils for *;\n\n    function verify(bytes key, bytes data, bytes sig) external view returns (bool) {\n        bytes memory exponent;\n        bytes memory modulus;\n\n        uint16 exponentLen = uint16(key.readUint8(4));\n        if (exponentLen != 0) {\n            exponent = key.substring(5, exponentLen);\n            modulus = key.substring(exponentLen + 5, key.length - exponentLen - 5);\n        } else {\n            exponentLen = key.readUint16(5);\n            exponent = key.substring(7, exponentLen);\n            modulus = key.substring(exponentLen + 7, key.length - exponentLen - 7);\n        }\n\n        // Recover the message from the signature\n        bool ok;\n        bytes memory result;\n        (ok, result) = RSAVerify.rsarecover(modulus, exponent, sig);\n\n        // Verify it ends with the hash of our data\n        return ok && SHA1.sha1(data) == result.readBytes20(result.length - 20);\n    }\n}\n",
  "sourcePath": "/Users/makoto/work/ens/dnssec-oracle/contracts/algorithms/RSASHA1Algorithm.sol",
  "compiler": {
    "name": "solc",
    "version": "0.4.24+commit.e67f0147.Emscripten.clang"
  },
  "schemaVersion": "2.0.1",
  "updatedAt": "2018-11-06T18:04:35.884Z"
}