{
  "contractName": "SHA1NSEC3Digest",
  "abi": [
    {
      "constant": true,
      "inputs": [
        {
          "name": "salt",
          "type": "bytes"
        },
        {
          "name": "data",
          "type": "bytes"
        },
        {
          "name": "iterations",
          "type": "uint256"
        }
      ],
      "name": "hash",
      "outputs": [
        {
          "name": "",
          "type": "bytes32"
        }
      ],
      "payable": false,
      "stateMutability": "pure",
      "type": "function"
    }
  ],
  "bytecode": "0x608060405234801561001057600080fd5b50610a3b806100206000396000f300608060405260043610610041576000357c0100000000000000000000000000000000000000000000000000000000900463ffffffff16806368f9dab214610046575b600080fd5b34801561005257600080fd5b506100a1600480360381019080803590602001908201803590602001919091929391929390803590602001908201803590602001919091929391929390803590602001909291905050506100bf565b60405180826000191660001916815260200191505060405180910390f35b60006100c96109f5565b6000806100ea6010888890508b8b905001018461026290919063ffffffff16565b5061013087878080601f016020809104026020016040519081016040528093929190818152602001838380828437820191505050505050846102b990919063ffffffff16565b5061017689898080601f016020809104026020016040519081016040528093929190818152602001838380828437820191505050505050846102b990919063ffffffff16565b5061018483600001516102db565b9150600085111561024457610198836107fc565b506101bc60006c01000000000000000000000000028461081390919063ffffffff16565b5061020289898080601f016020809104026020016040519081016040528093929190818152602001838380828437820191505050505050846102b990919063ffffffff16565b50600090505b8481101561024357610226600083856108449092919063ffffffff16565b5061023483600001516102db565b91508080600101915050610208565b5b816bffffffffffffffffffffffff1916935050505095945050505050565b61026a6109f5565b600060208381151561027857fe5b061415156102955760208281151561028c57fe5b06602003820191505b81836020018181525050604051808452600081528281016040525082905092915050565b6102c16109f5565b6102d383846000015151848551610871565b905092915050565b60006040518251602084019350604067ffffffffffffffc06001830116016009828203106001811461030c57610313565b6040820191505b50776745230100efcdab890098badcfe001032547600c3d2e1f061036e565b6000809050838310156103675782820151905082840393506020841015610366576001846020036101000a03198082169150505b5b9392505050565b60005b8281101561077c57610384848289610332565b8552610394846020830189610332565b6020860152604081850310600181146103ac576103b5565b60808286038701535b50604083038114600181146103c9576103d9565b6008850260208701511760208701525b5060405b60808110156104655760408103860151603882038701511860208203870151600c830388015118187c010000000100000001000000010000000100000001000000010000000163800000008204167ffffffffefffffffefffffffefffffffefffffffefffffffefffffffefffffffe6002830216179050808288015250600c810190506103dd565b5060805b6101408110156104f257608081038601516070820387015118604082038701516018830388015118187c030000000300000003000000030000000300000003000000030000000363400000008204167ffffffffcfffffffcfffffffcfffffffcfffffffcfffffffcfffffffcfffffffc6004830216179050808288015250601881019050610469565b508160008060005b605081101561074e57601481046000811461052c576001811461057657600281146105b357600381146106165761064f565b6501000000000085046a01000000000000000000008604189350836f01000000000000000000000000000000860416935083650100000000008604189350635a827999925061064f565b6a010000000000000000000085046f01000000000000000000000000000000860418935083650100000000008604189350636ed9eba1925061064f565b6a010000000000000000000085046f01000000000000000000000000000000860417935083650100000000008604169350836a010000000000000000000086046f01000000000000000000000000000000870416179350638f1bbcdc925061064f565b6a010000000000000000000085046f0100000000000000000000000000000086041893508365010000000000860418935063ca62c1d692505b50601f770800000000000000000000000000000000000000000000008504168063ffffffe073080000000000000000000000000000000000000087041617905080840190508063ffffffff86160190508083019050807c0100000000000000000000000000000000000000000000000000000000600484028c0151040190507401000000000000000000000000000000000000000081026501000000000086041794506a0100000000000000000000633fffffff6a040000000000000000000087041663c00000006604000000000000880416170277ffffffff00ffffffff000000000000ffffffff00ffffffff8616179450506001810190506104fa565b5077ffffffff00ffffffff00ffffffff00ffffffff00ffffffff838601169450505050604081019050610371565b506c0100000000000000000000000063ffffffff821667ffffffff000000006101008404166bffffffff0000000000000000620100008504166fffffffff000000000000000000000000630100000086041673ffffffff000000000000000000000000000000006401000000008704161717171702945050505050919050565b6108046109f5565b81516000815250819050919050565b61081b6109f5565b61083c83846000015151846bffffffffffffffffffffffff19166014610935565b905092915050565b61084c6109f5565b6108688484846bffffffffffffffffffffffff19166014610935565b90509392505050565b6108796109f5565b60008060008551851115151561088e57600080fd5b87602001518860000151518689010111156108c0576108bf8860026108b98b602001518b8a016109b5565b026109d1565b5b8751805188602083010194508089880111156108dc5788870182525b60208801935050505b60208510151561090a57815183526020830192506020820191506020850394506108e5565b6001856020036101000a03905080198251168184511681811785525050879350505050949350505050565b61093d6109f5565b600085602001518584011115610968576109678660026109618960200151876109b5565b026109d1565b5b6001836101000a0390508260200360080284600019169060020a9004935085518386820101858319825116178152815185880111156109a75784870182525b505085915050949350505050565b6000818311156109c7578290506109cb565b8190505b92915050565b6060826000015190506109e48383610262565b506109ef83826102b9565b50505050565b6040805190810160405280606081526020016000815250905600a165627a7a72305820da9ffcbb2219222364d1bd8d836a13739a34fda8a8d90d989b8a15bc4e56a0b50029",
  "source": "pragma solidity ^0.4.23;\n\nimport \"./NSEC3Digest.sol\";\nimport \"@ensdomains/solsha1/contracts/SHA1.sol\";\nimport \"@ensdomains/buffer/contracts/Buffer.sol\";\n\n/**\n* @dev Implements the DNSSEC iterated SHA1 digest used for NSEC3 records.\n*/\ncontract SHA1NSEC3Digest is NSEC3Digest {\n    using Buffer for Buffer.buffer;\n\n    function hash(bytes salt, bytes data, uint iterations) external pure returns (bytes32) {\n        Buffer.buffer memory buf;\n        buf.init(salt.length + data.length + 16);\n\n        buf.append(data);\n        buf.append(salt);\n        bytes20 h = SHA1.sha1(buf.buf);\n        if (iterations > 0) {\n            buf.truncate();\n            buf.appendBytes20(bytes20(0));\n            buf.append(salt);\n\n            for (uint i = 0; i < iterations; i++) {\n                buf.writeBytes20(0, h);\n                h = SHA1.sha1(buf.buf);\n            }\n        }\n\n        return bytes32(h);\n    }\n}\n",
  "sourcePath": "/Users/makoto/work/ens/dnssec-oracle/contracts/nsec3digests/SHA1NSEC3Digest.sol",
  "compiler": {
    "name": "solc",
    "version": "0.4.24+commit.e67f0147.Emscripten.clang"
  },
  "schemaVersion": "2.0.1",
  "updatedAt": "2018-11-06T18:04:35.878Z"
}