{
  "contractName": "DNSRegistrar",
  "abi": [
    {
      "constant": true,
      "inputs": [],
      "name": "ens",
      "outputs": [
        {
          "name": "",
          "type": "address"
        }
      ],
      "payable": false,
      "stateMutability": "view",
      "type": "function"
    },
    {
      "constant": true,
      "inputs": [],
      "name": "rootDomain",
      "outputs": [
        {
          "name": "",
          "type": "bytes"
        }
      ],
      "payable": false,
      "stateMutability": "view",
      "type": "function"
    },
    {
      "constant": true,
      "inputs": [],
      "name": "oracle",
      "outputs": [
        {
          "name": "",
          "type": "address"
        }
      ],
      "payable": false,
      "stateMutability": "view",
      "type": "function"
    },
    {
      "constant": true,
      "inputs": [],
      "name": "rootNode",
      "outputs": [
        {
          "name": "",
          "type": "bytes32"
        }
      ],
      "payable": false,
      "stateMutability": "view",
      "type": "function"
    },
    {
      "inputs": [
        {
          "name": "_dnssec",
          "type": "address"
        },
        {
          "name": "_ens",
          "type": "address"
        },
        {
          "name": "_rootDomain",
          "type": "bytes"
        },
        {
          "name": "_rootNode",
          "type": "bytes32"
        }
      ],
      "payable": false,
      "stateMutability": "nonpayable",
      "type": "constructor"
    },
    {
      "anonymous": false,
      "inputs": [
        {
          "indexed": true,
          "name": "node",
          "type": "bytes32"
        },
        {
          "indexed": true,
          "name": "owner",
          "type": "address"
        },
        {
          "indexed": false,
          "name": "dnsname",
          "type": "bytes"
        }
      ],
      "name": "Claim",
      "type": "event"
    },
    {
      "constant": false,
      "inputs": [
        {
          "name": "name",
          "type": "bytes"
        },
        {
          "name": "proof",
          "type": "bytes"
        }
      ],
      "name": "claim",
      "outputs": [],
      "payable": false,
      "stateMutability": "nonpayable",
      "type": "function"
    },
    {
      "constant": false,
      "inputs": [
        {
          "name": "name",
          "type": "bytes"
        },
        {
          "name": "input",
          "type": "bytes"
        },
        {
          "name": "proof",
          "type": "bytes"
        }
      ],
      "name": "proveAndClaim",
      "outputs": [],
      "payable": false,
      "stateMutability": "nonpayable",
      "type": "function"
    }
  ],
  "bytecode": "0x60806040523480156200001157600080fd5b506040516200159d3803806200159d83398101806040528101908080519060200190929190805190602001909291908051820192919060200180519060200190929190505050836000806101000a81548173ffffffffffffffffffffffffffffffffffffffff021916908373ffffffffffffffffffffffffffffffffffffffff16021790555082600160006101000a81548173ffffffffffffffffffffffffffffffffffffffff021916908373ffffffffffffffffffffffffffffffffffffffff1602179055508160029080519060200190620000f092919062000106565b50806003816000191690555050505050620001b5565b828054600181600116156101000203166002900490600052602060002090601f016020900481019282601f106200014957805160ff19168380011785556200017a565b828001600101855582156200017a579182015b82811115620001795782518255916020019190600101906200015c565b5b5090506200018991906200018d565b5090565b620001b291905b80821115620001ae57600081600090555060010162000194565b5090565b90565b6113d880620001c56000396000f300608060405260043610610078576000357c0100000000000000000000000000000000000000000000000000000000900463ffffffff1680633f15457f1461007d57806340ff38b2146100d45780637dc0d1d014610164578063be27b22c146101bb578063d94585bd1461026a578063faff50a81461035f575b600080fd5b34801561008957600080fd5b50610092610392565b604051808273ffffffffffffffffffffffffffffffffffffffff1673ffffffffffffffffffffffffffffffffffffffff16815260200191505060405180910390f35b3480156100e057600080fd5b506100e96103b8565b6040518080602001828103825283818151815260200191508051906020019080838360005b8381101561012957808201518184015260208101905061010e565b50505050905090810190601f1680156101565780820380516001836020036101000a031916815260200191505b509250505060405180910390f35b34801561017057600080fd5b50610179610456565b604051808273ffffffffffffffffffffffffffffffffffffffff1673ffffffffffffffffffffffffffffffffffffffff16815260200191505060405180910390f35b3480156101c757600080fd5b50610268600480360381019080803590602001908201803590602001908080601f0160208091040260200160405190810160405280939291908181526020018383808284378201915050505050509192919290803590602001908201803590602001908080601f016020809104026020016040519081016040528093929190818152602001838380828437820191505050505050919291929050505061047b565b005b34801561027657600080fd5b5061035d600480360381019080803590602001908201803590602001908080601f0160208091040260200160405190810160405280939291908181526020018383808284378201915050505050509192919290803590602001908201803590602001908080601f0160208091040260200160405190810160405280939291908181526020018383808284378201915050505050509192919290803590602001908201803590602001908080601f0160208091040260200160405190810160405280939291908181526020018383808284378201915050505050509192919290505050610679565b005b34801561036b57600080fd5b5061037461087d565b60405180826000191660001916815260200191505060405180910390f35b600160009054906101000a900473ffffffffffffffffffffffffffffffffffffffff1681565b60028054600181600116156101000203166002900480601f01602080910402602001604051908101604052809291908181526020018280546001816001161561010002031660029004801561044e5780601f106104235761010080835404028352916020019161044e565b820191906000526020600020905b81548152906001019060200180831161043157829003601f168201915b505050505081565b6000809054906101000a900473ffffffffffffffffffffffffffffffffffffffff1681565b60008061048784610883565b9150610493848461097a565b9050600160009054906101000a900473ffffffffffffffffffffffffffffffffffffffff1673ffffffffffffffffffffffffffffffffffffffff166306ab592360035484846040518463ffffffff167c010000000000000000000000000000000000000000000000000000000002815260040180846000191660001916815260200183600019166000191681526020018273ffffffffffffffffffffffffffffffffffffffff1673ffffffffffffffffffffffffffffffffffffffff1681526020019350505050600060405180830381600087803b15801561057457600080fd5b505af1158015610588573d6000803e3d6000fd5b505050508073ffffffffffffffffffffffffffffffffffffffff16600354836040518083600019166000191681526020018260001916600019168152602001925050506040518091039020600019167fa2e66ce20e6fb2c4f61339c364ad79f15160cf5307230c8bc4d628adbca2ba39866040518080602001828103825283818151815260200191508051906020019080838360005b8381101561063957808201518184015260208101905061061e565b50505050905090810190601f1680156106665780820380516001836020036101000a031916815260200191505b509250505060405180910390a350505050565b6000809054906101000a900473ffffffffffffffffffffffffffffffffffffffff1673ffffffffffffffffffffffffffffffffffffffff166376a14d1d83836040518363ffffffff167c0100000000000000000000000000000000000000000000000000000000028152600401808060200180602001838103835285818151815260200191508051906020019080838360005b8381101561072757808201518184015260208101905061070c565b50505050905090810190601f1680156107545780820380516001836020036101000a031916815260200191505b50838103825284818151815260200191508051906020019080838360005b8381101561078d578082015181840152602081019050610772565b50505050905090810190601f1680156107ba5780820380516001836020036101000a031916815260200191505b50945050505050600060405180830381600087803b1580156107db57600080fd5b505af11580156107ef573d6000803e3d6000fd5b505050506040513d6000823e3d601f19601f82011682018060405250602081101561081957600080fd5b81019080805164010000000081111561083157600080fd5b8281019050602081018481111561084757600080fd5b815185600182028301116401000000008211171561086457600080fd5b50509291905050509050610878838261047b565b505050565b60035481565b60008061089a600084610d7490919063ffffffff16565b60ff1690506109516001820160028054600181600116156101000203166002900480601f01602080910402602001604051908101604052809291908181526020018280546001816001161561010002031660029004801561093c5780601f106109115761010080835404028352916020019161093c565b820191906000526020600020905b81548152906001019060200180831161091f57829003601f168201915b505050505085610d9b9092919063ffffffff16565b151561095c57600080fd5b61097260018285610dc59092919063ffffffff16565b915050919050565b6000610984611346565b60008061098f611360565b60006109a8600589510186610dea90919063ffffffff16565b506109f16040805190810160405280600581526020017f045f656e7300000000000000000000000000000000000000000000000000000081525086610e4190919063ffffffff16565b50610a058886610e4190919063ffffffff16565b506000809054906101000a900473ffffffffffffffffffffffffffffffffffffffff1673ffffffffffffffffffffffffffffffffffffffff1663087991bc601087600001516040518363ffffffff167c0100000000000000000000000000000000000000000000000000000000028152600401808361ffff1661ffff16815260200180602001828103825283818151815260200191508051906020019080838360005b83811015610ac3578082015181840152602081019050610aa8565b50505050905090810190601f168015610af05780820380516001836020036101000a031916815260200191505b509350505050606060405180830381600087803b158015610b1057600080fd5b505af1158015610b24573d6000803e3d6000fd5b505050506040513d6060811015610b3a57600080fd5b81019080805190602001909291908051906020019092919080519060200190929190505050909150809550819450505060006c01000000000000000000000000026bffffffffffffffffffffffff1916846bffffffffffffffffffffffff1916148015610ba8575060008751145b15610bb65760009550610d69565b866040518082805190602001908083835b602083101515610bec5780518252602082019150602081019050602083039250610bc7565b6001836020036101000a03801982511681845116808217855250505050505090500191505060405180910390206bffffffffffffffffffffffff1916846bffffffffffffffffffffffff1916141515610c4457600080fd5b610c58600088610e6390919063ffffffff16565b91505b610c6482610e8d565b1515610d645742826080015163ffffffff16840167ffffffffffffffff1610151515610d1e576040517f08c379a000000000000000000000000000000000000000000000000000000000815260040180806020018281038252603c8152602001807f444e53207265636f7264206973207374616c653b2072656672657368206f722081526020017f64656c657465206974206265666f72652070726f63656564696e672e0000000081525060400191505060405180910390fd5b610d2c878360a00151610ea3565b905060008173ffffffffffffffffffffffffffffffffffffffff16141515610d5657809550610d69565b610d5f82610f1c565b610c5b565b600095505b505050505092915050565b600082516001830111151515610d8957600080fd5b60ff8260018501015116905092915050565b600081518301845110158015610dbc5750610dbb84848460008651611031565b5b90509392505050565b6000835182840111151515610dd957600080fd5b818360208601012090509392505050565b610df2611346565b6000602083811515610e0057fe5b06141515610e1d57602082811515610e1457fe5b06602003820191505b81836020018181525050604051808452600081528281016040525082905092915050565b610e49611346565b610e5b8384600001515184855161105d565b905092915050565b610e6b611360565b828160000181905250818160c0018181525050610e8781610f1c565b92915050565b6000816000015151826020015110159050919050565b60008060005b8451841015610f0f57610ec58486610d7490919063ffffffff16565b60ff169150600184019350610edb858584611121565b905060008173ffffffffffffffffffffffffffffffffffffffff16141515610f0557809250610f14565b8184019350610ea9565b600092505b505092915050565b6000808260c001518360200181815250508260000151518360200151101515610f445761102c565b610f568360000151846020015161117a565b8360200151019150610f758284600001516111d690919063ffffffff16565b836040019061ffff16908161ffff1681525050600282019150610fa58284600001516111d690919063ffffffff16565b836060019061ffff16908161ffff1681525050600282019150610fd58284600001516111fe90919063ffffffff16565b836080019063ffffffff16908163ffffffff16815250506004820191506110098284600001516111d690919063ffffffff16565b61ffff169050600282019150818360a00181815250508082018360c00181815250505b505050565b600061103e848484610dc5565b6000191661104d878785610dc5565b6000191614905095945050505050565b611065611346565b60008060008551851115151561107a57600080fd5b87602001518860000151518689010111156110ac576110ab8860026110a58b602001518b8a01611228565b02611244565b5b8751805188602083010194508089880111156110c85788870182525b60208801935050505b6020851015156110f657815183526020830192506020820191506020850394506110d1565b6001856020036101000a03905080198251168184511681811785525050879350505050949350505050565b600063613d307861113b84866111fe90919063ffffffff16565b63ffffffff161415156111515760009050611173565b602c8210156111635760009050611173565b6111708460048501611268565b90505b9392505050565b60008060008391505b6001156111c95784518210151561119657fe5b6111a98286610d7490919063ffffffff16565b60ff169050600181018201915060008114156111c4576111c9565b611183565b8382039250505092915050565b6000825160028301111515156111eb57600080fd5b61ffff8260028501015116905092915050565b60008251600483011115151561121357600080fd5b63ffffffff8260048501015116905092915050565b60008183111561123a5782905061123e565b8190505b92915050565b6060826000015190506112578383610dea565b506112628382610e41565b50505050565b6000806000806028858751031015611283576000935061133d565b600092508491505b60288501821015611339576004839060020a0292506112b38287610d7490919063ffffffff16565b60ff169050603081101580156112c95750603a81105b156112db57603081038317925061132c565b604181101580156112ec5750604781105b156112fe57603781038317925061132b565b6061811015801561130f5750606781105b1561132157605781038317925061132a565b6000935061133d565b5b5b818060010192505061128b565b8293505b50505092915050565b604080519081016040528060608152602001600081525090565b60e0604051908101604052806060815260200160008152602001600061ffff168152602001600061ffff168152602001600063ffffffff168152602001600081526020016000815250905600a165627a7a723058203d4d56291c1ef7a657deba4877c1504dd13b55ea30ecdef7eec8f89b046aa4450029",
  "source": "pragma solidity ^0.4.23;\n\nimport \"@ensdomains/ens/contracts/ENS.sol\";\nimport \"@ensdomains/dnssec-oracle/contracts/DNSSEC.sol\";\nimport \"@ensdomains/dnssec-oracle/contracts/BytesUtils.sol\";\nimport \"@ensdomains/dnssec-oracle/contracts/RRUtils.sol\";\n\n/**\n * @dev An ENS registrar that allows the owner of a DNS name to claim the\n *      corresponding name in ENS.\n */\ncontract DNSRegistrar {\n    using BytesUtils for bytes;\n    using RRUtils for *;\n    using Buffer for Buffer.buffer;\n\n    uint16 constant CLASS_INET = 1;\n    uint16 constant TYPE_TXT = 16;\n\n    DNSSEC public oracle;\n    ENS public ens;\n    bytes public rootDomain;\n    bytes32 public rootNode;\n\n    event Claim(bytes32 indexed node, address indexed owner, bytes dnsname);\n\n    constructor(DNSSEC _dnssec, ENS _ens, bytes _rootDomain, bytes32 _rootNode) public {\n        oracle = _dnssec;\n        ens = _ens;\n        rootDomain = _rootDomain;\n        rootNode = _rootNode;\n    }\n\n    /**\n     * @dev Claims a name by proving ownership of its DNS equivalent.\n     * @param name The name to claim, in DNS wire format.\n     * @param proof A DNS RRSet proving ownership of the name. Must be verified\n     *        in the DNSSEC oracle before calling. This RRSET must contain a TXT\n     *        record for '_ens.' + name, with the value 'a=0x...'. Ownership of\n     *        the name will be transferred to the address specified in the TXT\n     *        record.\n     */\n    function claim(bytes name, bytes proof) public {\n        bytes32 labelHash = getLabelHash(name);\n\n        address addr = getOwnerAddress(name, proof);\n\n        ens.setSubnodeOwner(rootNode, labelHash, addr);\n        emit Claim(keccak256(rootNode, labelHash), addr, name);\n    }\n\n    /**\n     * @dev Submits proofs to the DNSSEC oracle, then claims a name using those proofs.\n     * @param name The name to claim, in DNS wire format.\n     * @param input The data to be passed to the Oracle's `submitProofs` function. The last\n     *        proof must be the TXT record required by the registrar.\n     * @param proof The proof record for the first element in input.\n     */\n    function proveAndClaim(bytes name, bytes input, bytes proof) public {\n        proof = oracle.submitRRSets(input, proof);\n        claim(name, proof);\n    }\n\n    function getLabelHash(bytes memory name) internal view returns(bytes32) {\n        uint len = name.readUint8(0);\n        // Check this name is a direct subdomain of the one we're responsible for\n        require(name.equals(len + 1, rootDomain));\n        return name.keccak(1, len);\n    }\n\n    function getOwnerAddress(bytes memory name, bytes memory proof) internal view returns(address) {\n        // Add \"_ens.\" to the front of the name.\n        Buffer.buffer memory buf;\n        buf.init(name.length + 5);\n        buf.append(\"\\x04_ens\");\n        buf.append(name);\n        bytes20 hash;\n        uint64 inserted;\n        // Check the provided TXT record has been validated by the oracle\n        (, inserted, hash) = oracle.rrdata(TYPE_TXT, buf.buf);\n        if(hash == bytes20(0) && proof.length == 0) return 0;\n\n        require(hash == bytes20(keccak256(proof)));\n\n        for(RRUtils.RRIterator memory iter = proof.iterateRRs(0); !iter.done(); iter.next()) {\n            require(inserted + iter.ttl >= now, \"DNS record is stale; refresh or delete it before proceeding.\");\n\n            address addr = parseRR(proof, iter.rdataOffset);\n            if(addr != 0) {\n                return addr;\n            }\n        }\n\n        return 0;\n    }\n\n    function parseRR(bytes memory rdata, uint idx) internal pure returns(address) {\n        while(idx < rdata.length) {\n            uint len = rdata.readUint8(idx); idx += 1;\n            address addr = parseString(rdata, idx, len);\n            if(addr != 0) return addr;\n            idx += len;\n        }\n\n        return 0;\n    }\n\n    function parseString(bytes memory str, uint idx, uint len) internal pure returns(address) {\n        // TODO: More robust parsing that handles whitespace and multiple key/value pairs\n        if(str.readUint32(idx) != 0x613d3078) return 0; // 0x613d3078 == 'a=0x'\n        if(len < 44) return 0;\n        return hexToAddress(str, idx + 4);\n    }\n\n    function hexToAddress(bytes memory str, uint idx) internal pure returns(address) {\n        if(str.length - idx < 40) return 0;\n        uint ret = 0;\n        for(uint i = idx; i < idx + 40; i++) {\n            ret <<= 4;\n            uint x = str.readUint8(i);\n            if(x >= 48 && x < 58) {\n                ret |= x - 48;\n            } else if(x >= 65 && x < 71) {\n                ret |= x - 55;\n            } else if(x >= 97 && x < 103) {\n                ret |= x - 87;\n            } else {\n                return 0;\n            }\n        }\n        return address(ret);\n    }\n}\n",
  "sourcePath": "/Users/makoto/work/ens/dnsregistrar/contracts/dnsregistrar.sol",
  "compiler": {
    "name": "solc",
    "version": "0.4.24+commit.e67f0147.Emscripten.clang"
  },
  "schemaVersion": "2.0.1",
  "updatedAt": "2018-08-25T20:49:48.105Z"
}