{
  "contractName": "DNSSEC",
  "abi": [
    {
      "constant": false,
      "inputs": [
        {
          "name": "newOwner",
          "type": "address"
        }
      ],
      "name": "setOwner",
      "outputs": [],
      "payable": false,
      "stateMutability": "nonpayable",
      "type": "function"
    },
    {
      "constant": true,
      "inputs": [
        {
          "name": "",
          "type": "uint8"
        }
      ],
      "name": "digests",
      "outputs": [
        {
          "name": "",
          "type": "address"
        }
      ],
      "payable": false,
      "stateMutability": "view",
      "type": "function"
    },
    {
      "constant": true,
      "inputs": [],
      "name": "owner",
      "outputs": [
        {
          "name": "",
          "type": "address"
        }
      ],
      "payable": false,
      "stateMutability": "view",
      "type": "function"
    },
    {
      "constant": true,
      "inputs": [],
      "name": "anchors",
      "outputs": [
        {
          "name": "",
          "type": "bytes"
        }
      ],
      "payable": false,
      "stateMutability": "view",
      "type": "function"
    },
    {
      "constant": true,
      "inputs": [
        {
          "name": "",
          "type": "uint8"
        }
      ],
      "name": "nsec3Digests",
      "outputs": [
        {
          "name": "",
          "type": "address"
        }
      ],
      "payable": false,
      "stateMutability": "view",
      "type": "function"
    },
    {
      "constant": true,
      "inputs": [
        {
          "name": "",
          "type": "uint8"
        }
      ],
      "name": "algorithms",
      "outputs": [
        {
          "name": "",
          "type": "address"
        }
      ],
      "payable": false,
      "stateMutability": "view",
      "type": "function"
    },
    {
      "inputs": [
        {
          "name": "_anchors",
          "type": "bytes"
        }
      ],
      "payable": false,
      "stateMutability": "nonpayable",
      "type": "constructor"
    },
    {
      "anonymous": false,
      "inputs": [
        {
          "indexed": false,
          "name": "id",
          "type": "uint8"
        },
        {
          "indexed": false,
          "name": "addr",
          "type": "address"
        }
      ],
      "name": "AlgorithmUpdated",
      "type": "event"
    },
    {
      "anonymous": false,
      "inputs": [
        {
          "indexed": false,
          "name": "id",
          "type": "uint8"
        },
        {
          "indexed": false,
          "name": "addr",
          "type": "address"
        }
      ],
      "name": "DigestUpdated",
      "type": "event"
    },
    {
      "anonymous": false,
      "inputs": [
        {
          "indexed": false,
          "name": "id",
          "type": "uint8"
        },
        {
          "indexed": false,
          "name": "addr",
          "type": "address"
        }
      ],
      "name": "NSEC3DigestUpdated",
      "type": "event"
    },
    {
      "anonymous": false,
      "inputs": [
        {
          "indexed": false,
          "name": "name",
          "type": "bytes"
        },
        {
          "indexed": false,
          "name": "rrset",
          "type": "bytes"
        }
      ],
      "name": "RRSetUpdated",
      "type": "event"
    },
    {
      "constant": false,
      "inputs": [
        {
          "name": "id",
          "type": "uint8"
        },
        {
          "name": "algo",
          "type": "address"
        }
      ],
      "name": "setAlgorithm",
      "outputs": [],
      "payable": false,
      "stateMutability": "nonpayable",
      "type": "function"
    },
    {
      "constant": false,
      "inputs": [
        {
          "name": "id",
          "type": "uint8"
        },
        {
          "name": "digest",
          "type": "address"
        }
      ],
      "name": "setDigest",
      "outputs": [],
      "payable": false,
      "stateMutability": "nonpayable",
      "type": "function"
    },
    {
      "constant": false,
      "inputs": [
        {
          "name": "id",
          "type": "uint8"
        },
        {
          "name": "digest",
          "type": "address"
        }
      ],
      "name": "setNSEC3Digest",
      "outputs": [],
      "payable": false,
      "stateMutability": "nonpayable",
      "type": "function"
    },
    {
      "constant": false,
      "inputs": [
        {
          "name": "data",
          "type": "bytes"
        },
        {
          "name": "proof",
          "type": "bytes"
        }
      ],
      "name": "submitRRSets",
      "outputs": [
        {
          "name": "",
          "type": "bytes"
        }
      ],
      "payable": false,
      "stateMutability": "nonpayable",
      "type": "function"
    },
    {
      "constant": false,
      "inputs": [
        {
          "name": "input",
          "type": "bytes"
        },
        {
          "name": "sig",
          "type": "bytes"
        },
        {
          "name": "proof",
          "type": "bytes"
        }
      ],
      "name": "submitRRSet",
      "outputs": [
        {
          "name": "rrs",
          "type": "bytes"
        }
      ],
      "payable": false,
      "stateMutability": "nonpayable",
      "type": "function"
    },
    {
      "constant": false,
      "inputs": [
        {
          "name": "deleteType",
          "type": "uint16"
        },
        {
          "name": "deleteName",
          "type": "bytes"
        },
        {
          "name": "nsec",
          "type": "bytes"
        },
        {
          "name": "sig",
          "type": "bytes"
        },
        {
          "name": "proof",
          "type": "bytes"
        }
      ],
      "name": "deleteRRSet",
      "outputs": [],
      "payable": false,
      "stateMutability": "nonpayable",
      "type": "function"
    },
    {
      "constant": true,
      "inputs": [
        {
          "name": "dnstype",
          "type": "uint16"
        },
        {
          "name": "name",
          "type": "bytes"
        }
      ],
      "name": "rrdata",
      "outputs": [
        {
          "name": "",
          "type": "uint32"
        },
        {
          "name": "",
          "type": "uint64"
        },
        {
          "name": "",
          "type": "bytes20"
        }
      ],
      "payable": false,
      "stateMutability": "view",
      "type": "function"
    }
  ],
  "bytecode": "0x60806040523480156200001157600080fd5b5060405162002ddc38038062002ddc83398101604052805160008054600160a060020a03191633179055018051620000519060029060208401906200024c565b50606060405190810160405280600063ffffffff168152602001426001604060020a0316815260200160026040518082805460018160011615610100020316600290048015620000db5780601f10620000b8576101008083540402835291820191620000db565b820191906000526020600020905b815481529060010190602001808311620000c6575b505060408051918290039091206001606060020a0319169093525050805160008082528251918290036001908101832082526020818152848320602b845281528483208651815488840151988801516c0100000000000000000000000090819004026001604060020a03909916640100000000026bffffffffffffffff000000001963ffffffff90931663ffffffff199092169190911791909116176001606060020a03169690961790955583835292820183905260608201526080928101838152600280549384161561010002600019019093168390049382018490527f55ced933cdd5a34dd03eb5d4bef19ec6ebb251dcd7a988eee0c1b9a13baaa88b9382919060a083019085908015620002365780601f106200020a5761010080835404028352916020019162000236565b820191906000526020600020905b8154815290600101906020018083116200021857829003601f168201915b5050935050505060405180910390a150620002f1565b828054600181600116156101000203166002900490600052602060002090601f016020900481019282601f106200028f57805160ff1916838001178555620002bf565b82800160010185558215620002bf579182015b82811115620002bf578251825591602001919060010190620002a2565b50620002cd929150620002d1565b5090565b620002ee91905b80821115620002cd5760008155600101620002d8565b90565b612adb80620003016000396000f3006080604052600436106100ab5763ffffffff60e060020a600035041663020ed8d381146100b0578063087991bc146100d957806313af40351461017857806328e7677d146101995780634d46d581146101c057806373cc48a61461030a57806376a14d1d146103415780638438dc04146103d85780638da5cb5b146103ff57806398d35f2014610414578063bd7ed31a14610429578063c327deef14610444578063e60b202f1461045f575b600080fd5b3480156100bc57600080fd5b506100d760ff60043516600160a060020a036024351661057b565b005b3480156100e557600080fd5b5060408051602060046024803582810135601f810185900485028601850190965285855261013b95833561ffff1695369560449491939091019190819084018382808284375094975061060a9650505050505050565b6040805163ffffffff909416845267ffffffffffffffff90921660208401526bffffffffffffffffffffffff191682820152519081900360600190f35b34801561018457600080fd5b506100d7600160a060020a03600435166106ca565b3480156101a557600080fd5b506100d760ff60043516600160a060020a0360243516610710565b3480156101cc57600080fd5b506040805160206004803580820135601f810184900484028501840190955284845261029594369492936024939284019190819084018382808284375050604080516020601f89358b018035918201839004830284018301909452808352979a99988101979196509182019450925082915084018382808284375050604080516020601f89358b018035918201839004830284018301909452808352979a99988101979196509182019450925082915084018382808284375094975061079f9650505050505050565b6040805160208082528351818301528351919283929083019185019080838360005b838110156102cf5781810151838201526020016102b7565b50505050905090810190601f1680156102fc5780820380516001836020036101000a031916815260200191505b509250505060405180910390f35b34801561031657600080fd5b5061032560ff60043516610bae565b60408051600160a060020a039092168252519081900360200190f35b34801561034d57600080fd5b506040805160206004803580820135601f810184900484028501840190955284845261029594369492936024939284019190819084018382808284375050604080516020601f89358b018035918201839004830284018301909452808352979a999881019791965091820194509250829150840183828082843750949750610bc99650505050505050565b3480156103e457600080fd5b506100d760ff60043516600160a060020a0360243516610c4d565b34801561040b57600080fd5b50610325610cdc565b34801561042057600080fd5b50610295610ceb565b34801561043557600080fd5b5061032560ff60043516610d76565b34801561045057600080fd5b5061032560ff60043516610d91565b34801561046b57600080fd5b5060408051602060046024803582810135601f81018590048502860185019096528585526100d795833561ffff1695369560449491939091019190819084018382808284375050604080516020601f89358b018035918201839004830284018301909452808352979a99988101979196509182019450925082915084018382808284375050604080516020601f89358b018035918201839004830284018301909452808352979a99988101979196509182019450925082915084018382808284375050604080516020601f89358b018035918201839004830284018301909452808352979a999881019791965091820194509250829150840183828082843750949750610dac9650505050505050565b600054600160a060020a0316331461059257600080fd5b60ff8216600081815260036020908152604091829020805473ffffffffffffffffffffffffffffffffffffffff1916600160a060020a03861690811790915582519384529083015280517ff73c3c226af96b7f1ba666a21b3ceaf2be3ee6a365e3178fd9cd1eaae0075aa89281900390910190a15050565b60008060008060016000866040518082805190602001908083835b602083106106445780518252601f199092019160209182019101610625565b51815160209384036101000a6000190180199092169116179052604080519290940182900390912086528581019690965250928301600090812061ffff9b909b16815299909352509096205463ffffffff811697640100000000820467ffffffffffffffff1697506c010000000000000000000000009182900490910295509350505050565b600054600160a060020a031633146106e157600080fd5b6000805473ffffffffffffffffffffffffffffffffffffffff1916600160a060020a0392909216919091179055565b600054600160a060020a0316331461072757600080fd5b60ff8216600081815260046020908152604091829020805473ffffffffffffffffffffffffffffffffffffffff1916600160a060020a03861690811790915582519384529083015280517f2fcc274c3b72dd483ab201bfa87295e3817e8b9b10693219873b722ca1af00c79281900390910190a15050565b60608060008060006107b2888888610fbb565b955093506107c788600c63ffffffff6110b816565b92506107da88600063ffffffff6110db16565b915060016000856040518082805190602001908083835b602083106108105780518252601f1990920191602091820191016107f1565b51815160209384036101000a6000190180199092169116179052604080519290940182900390912086528581019690965250928301600090812061ffff88168252909452505081208054909250640100000000900467ffffffffffffffff16111561088d57805463ffffffff908116908416101561088d57600080fd5b846040518082805190602001908083835b602083106108bd5780518252601f19909201916020918201910161089e565b5181516020939093036101000a6000190180199091169216919091179052604051920182900390912084546c0100000000000000000000000090819004026bffffffffffffffffffffffff19161415925061091a91505057610ba3565b6060604051908101604052808463ffffffff1681526020014267ffffffffffffffff168152602001866040518082805190602001908083835b602083106109725780518252601f199092019160209182019101610953565b6001836020036101000a03801982511681845116808217855250505050505090500191505060405180910390206bffffffffffffffffffffffff191681525060016000866040518082805190602001908083835b602083106109e55780518252601f1990920191602091820191016109c6565b51815160209384036101000a6000190180199092169116179052604080519290940182900390912086528581019690965250928301600090812061ffff89168252855283812086518154888801519887015163ffffffff1990911663ffffffff909216919091176bffffffffffffffff00000000191664010000000067ffffffffffffffff90991698909802979097176bffffffffffffffffffffffff166c0100000000000000000000000097889004909702969096179095555050805181815287519181019190915286517f55ced933cdd5a34dd03eb5d4bef19ec6ebb251dcd7a988eee0c1b9a13baaa88b9388938a93928392838301926060850192908801918190849084905b83811015610b06578181015183820152602001610aee565b50505050905090810190601f168015610b335780820380516001836020036101000a031916815260200191505b50838103825284518152845160209182019186019080838360005b83811015610b66578181015183820152602001610b4e565b50505050905090810190601f168015610b935780820380516001836020036101000a031916815260200191505b5094505050505060405180910390a15b505050509392505050565b600460205260009081526040902054600160a060020a031681565b6060600081805b8551831015610c4357610c0260028401610bf0888663ffffffff6110db16565b88919061ffff1663ffffffff6110fc16565b80519390930160028101939250610c2690600401610bf0888663ffffffff6110db16565b9050805160020183019250610c3c82828761079f565b9450610bd0565b5092949350505050565b600054600160a060020a03163314610c6457600080fd5b60ff8216600081815260056020908152604091829020805473ffffffffffffffffffffffffffffffffffffffff1916600160a060020a03861690811790915582519384529083015280517fc7eec866a7a1386188cc3ca20ffea75b71bd3e90a60b6791b1d3f0971145118d9281900390910190a15050565b600054600160a060020a031681565b6002805460408051602060018416156101000260001901909316849004601f81018490048402820184019092528181529291830182828015610d6e5780601f10610d4357610100808354040283529160200191610d6e565b820191906000526020600020905b815481529060010190602001808311610d5157829003601f168201915b505050505081565b600560205260009081526040902054600160a060020a031681565b600360205260009081526040902054600160a060020a031681565b606080610db7612a4b565b610dc2868686610fbb565b9093509150610dd886600c63ffffffff6110b816565b63ffffffff1660016000896040518082805190602001908083835b60208310610e125780518252601f199092019160209182019101610df3565b51815160209384036101000a6000190180199092169116179052604080519290940182900390912086528581019690965250928301600090812061ffff8f168252909452505090205463ffffffff161115610e6c57600080fd5b610e7d82600063ffffffff61116716565b9050610e8881611188565b15156100ab57604081015161ffff16602f1415610eb057610eab8184898b611196565b610f34565b604081015161ffff1660321415610ecd57610eab8184898b611280565b604080517f08c379a000000000000000000000000000000000000000000000000000000000815260206004820152601860248201527f556e7265636f676e69736564207265636f726420747970650000000000000000604482015290519081900360640190fd5b60016000886040518082805190602001908083835b60208310610f685780518252601f199092019160209182019101610f49565b51815160209384036101000a6000190180199092169116179052604080519290940182900390912086528581019690965250928301600090812061ffff8e16825290945250508120555050505050505050565b606080600080808080610fde610fd88b601263ffffffff61165416565b8961167f565b1515610fe957600080fd5b610ffa8a600c63ffffffff6110b816565b945061100d8a600863ffffffff6110b816565b93506110208a600063ffffffff6110db16565b92506110338a600363ffffffff6117bb16565b91506110468a601263ffffffff6117db16565b601201905061106381828c51038c6110fc9092919063ffffffff16565b955061106f8684611822565b965061107b87836118ee565b611087878b8b8b611943565b4263ffffffff85161161109957600080fd5b4263ffffffff8616106110ab57600080fd5b5050505050935093915050565b81516000906004830111156110cc57600080fd5b50016004015163ffffffff1690565b81516000906002830111156110ef57600080fd5b50016002015161ffff1690565b60608060008086518587011115151561111457600080fd5b846040519080825280601f01601f191660200182016040528015611142578160200160208202803883390190505b50925050602080830191508686010161115c828287611a6a565b509095945050505050565b61116f612a4b565b82815260c081018290526111828161157e565b92915050565b805151602090910151101590565b60a08401518451600090819081906060906111b7908663ffffffff6117db16565b93508860a001518960c0015103925083831115156111d457600080fd5b6111e4878963ffffffff611aae16565b9150811515611211578851611202908686018863ffffffff611bf216565b1561120c57600080fd5b611275565b885161122490868663ffffffff6110fc16565b90506000611238898363ffffffff611aae16565b12156112685760008213801561125d5750600061125b888363ffffffff611aae16565b125b151561120c57600080fd5b6000821361127557600080fd5b505050505050505050565b60008060606000806000806112a960028c60a00151018c600001516110db90919063ffffffff16565b60a08c01518c519198506112c6919060040163ffffffff6117bb16565b60a08c01518c519197506112e7919060050160ff891663ffffffff6110fc16565b9450600560006113088d60a001518e600001516117bb90919063ffffffff16565b60ff1660ff16815260200190815260200160002060009054906101000a9004600160a060020a0316600160a060020a03166368f9dab2868b8a6040518463ffffffff1660e060020a0281526004018080602001806020018461ffff168152602001838103835286818151815260200191508051906020019080838360005b8381101561139e578181015183820152602001611386565b50505050905090810190601f1680156113cb5780820380516001836020036101000a031916815260200191505b50838103825285518152855160209182019187019080838360005b838110156113fe5781810151838201526020016113e6565b50505050905090810190601f16801561142b5780820380516001836020036101000a031916815260200191505b5095505050505050602060405180830381600087803b15801561144d57600080fd5b505af1158015611461573d6000803e3d6000fd5b505050506040513d602081101561147757600080fd5b505160a08c01518c5191955061149b919060ff89160160050163ffffffff6117bb16565b9250602060ff841611156114ae57600080fd5b60a08b01518b516114cc9160ff898116909101600601908616611cd2565b6bffffffffffffffffffffffff1916915061150460016114f38c600063ffffffff6117bb16565b8c919060ff1663ffffffff611cff16565b9050838114156115445760a08b01518b516115359160ff89811691909101908616016006018a63ffffffff611bf216565b1561153f57600080fd5b611571565b8082111561156557808411801561155a57508184105b151561153f57600080fd5b80841161157157600080fd5b5050505050505050505050565b60c08101516020820181905281515160009182911161159c5761164f565b6115ae836000015184602001516117db565b60208401518451910192506115c9908363ffffffff6110db16565b61ffff1660408401528251600292909201916115eb908363ffffffff6110db16565b61ffff16606084015282516002929092019161160d908363ffffffff6110b816565b63ffffffff908116608085015283516004939093019261162f9184906110db16565b600283810160a0860181905261ffff929092169384010160c08501529190505b505050565b6060600061166284846117db565b905061167584848363ffffffff6110fc16565b91505b5092915050565b6000806116a2611695848363ffffffff6117db16565b849063ffffffff6110db16565b9050826040518082805190602001908083835b602083106116d45780518252601f1990920191602091820191016116b5565b6001836020036101000a03801982511681845116808217855250505050505090500191505060405180910390206bffffffffffffffffffffffff191660016000866040518082805190602001908083835b602083106117445780518252601f199092019160209182019101611725565b51815160209384036101000a6000190180199092169116179052604080519290940182900390912086528581019690965250928301600090812061ffff9790971681529590935250909220546c0100000000000000000000000090819004026bffffffffffffffffffffffff191614949350505050565b81516000906001830111156117cf57600080fd5b50016001015160ff1690565b600081815b845182106117ea57fe5b6117fa858363ffffffff6117bb16565b60ff1691820160010191905080151561181257611817565b6117e0565b509190910392915050565b606061182c612a4b565b61183d84600063ffffffff61116716565b90505b61184981611188565b151561167857606081015161ffff1660011461186457600080fd5b8151151561187c5761187581611f98565b91506118c6565b602081015161189290859063ffffffff6117db16565b82511461189e57600080fd5b602081015182516118bb918491600091889163ffffffff611fbf16565b15156118c657600080fd5b8261ffff16816040015161ffff161415156118e057600080fd5b6118e98161157e565b611840565b6000611900838263ffffffff611fe216565b90508160ff1681148061193857508160010160ff1681148015611938575061192f83600063ffffffff6110db16565b61ffff1661012a145b151561164f57600080fd5b6000808061195886601263ffffffff6117db16565b875190935083111561196957600080fd5b86516119859087906012908a908790038763ffffffff611fbf16565b151561199057600080fd5b6012830191506119b76119aa85600063ffffffff6117db16565b859063ffffffff6110db16565b905061ffff8116602b14156119e2576119d28686848761202c565b15156119dd57600080fd5b611a61565b61ffff8116603014156119fa576119d2868686612104565b604080517f08c379a000000000000000000000000000000000000000000000000000000000815260206004820152601d60248201527f556e737570706f727465642070726f6f66207265636f72642074797065000000604482015290519081900360640190fd5b50505050505050565b60005b60208210611a8f578251845260209384019390920191601f1990910190611a6d565b50905182516020929092036101000a6000190180199091169116179052565b6000808080808080611ac6898963ffffffff6121e916565b15611ad45760009650611be6565b611adf896000611fe2565b9150611aec886000611fe2565b90505b80821115611b1257859350611b04898761220e565b955060001990910190611aef565b81811115611b3257849250611b27888661220e565b945060001901611b12565b600082118015611b515750611b4f89878a8863ffffffff61223016565b155b15611b7f57859350611b63898761220e565b9550849250611b72888661220e565b9450600182039150611b32565b851515611b90576000199650611be6565b841515611ba05760019650611be6565b611be360018501611bb78b8763ffffffff6117bb16565b60ff168a60018701611bcf828963ffffffff6117bb16565b8e949392919060ff1663ffffffff61225c16565b96505b50505050505092915050565b600061010061ffff831604600860ff8085169190910490600780861690031660020a8584805b8951831015611cc057611c318a8463ffffffff6117bb16565b9150611c468a6001850163ffffffff6117bb16565b90508160ff168660ff161015611c5f5760009650611cc5565b8160ff168660ff161415611cb0578460ff168160080260ff16111515611c885760009650611cc5565b83611ca18b600260ff891687010163ffffffff6117bb16565b1660ff16600014159650611cc5565b8060020160ff1683019250611c18565b600096505b5050505050509392505050565b82516000908383011115611ce557600080fd5b506020919092018101519190036101000a60001901191690565b600080808080806034871115611d1457600080fd5b60009450600093505b86841015611ec65788848901815181101515611d3557fe5b016020015160f860020a908190040292507f30000000000000000000000000000000000000000000000000000000000000007fff00000000000000000000000000000000000000000000000000000000000000841610801590611dda57507f7a000000000000000000000000000000000000000000000000000000000000007fff00000000000000000000000000000000000000000000000000000000000000841611155b1515611de557600080fd5b6040805160808101825260478082527e010203040506070809ffffffffffffff0a0b0c0d0e0f10111213141516171860208301527f191a1b1c1d1e1fffffffffffffffffffff0a0b0c0d0e0f101112131415161718928201929092527f191a1b1c1d1e1f00000000000000000000000000000000000000000000000000606082015290602f1960f860020a860401908110611e7c57fe5b0160209081015160f860020a90819004810204925060ff83161115611ea057600080fd5b60018703841415611eb057611ec6565b602090940260ff82161793600190930192611d1d565b5060058602600887061515611ee557602090940260ff82161793611f82565b6008870660021415611f0d576008909402600460ff8084169190910416179360011901611f82565b6008870660041415611f3657600294909402601060ff8084169190910416179360031901611f82565b6008870660051415611f5e576010909402600260ff8084169190910416179360001901611f82565b60088706600714156100ab576004909402600860ff80841691909104161793600219015b6101000360020a93909302979650505050505050565b6020810151815160609161118291611fb090826117db565b8451919063ffffffff6110fc16565b6000611fcc848484612307565b611fd7878785612307565b149695505050505050565b600080805b84518410611ff157fe5b612001858563ffffffff6117bb16565b60ff1693840160010193905080151561201957612024565b600182019150611fe7565b509392505050565b6000806000612039612a4b565b606061204c89600263ffffffff6117bb16565b935061205f89601063ffffffff6110db16565b9250612071898863ffffffff61116716565b91505b61207d82611188565b15156120f357604082015161ffff1660301461209c57600094506120f8565b6120a582612324565b90506120b48185858c8c612345565b156120e5576120ce6120c583611f98565b8285878a6125ea565b156120dc57600194506120f8565b600094506120f8565b6120ee8261157e565b612074565b600094505b50505050949350505050565b600080600080612112612a4b565b61212388601263ffffffff6117db16565b935061213688600263ffffffff6117bb16565b925061214988601063ffffffff6110db16565b915061215c86600063ffffffff61116716565b90505b61216881611188565b15156121db578361218087600063ffffffff6117db16565b1461218a57600080fd5b61219f8660008a60128863ffffffff611fbf16565b15156121aa57600080fd5b6121bf6121b682612324565b84848b8b612345565b156121cd5760019450610ba3565b6121d68161157e565b61215f565b506000979650505050505050565b60008151835114801561220757506122078360008460008751611fbf565b9392505050565b6000612220838363ffffffff6117bb16565b60ff168260010101905092915050565b6000612240838384865103612307565b60001916612252868687895103612307565b1495945050505050565b60008481808080808080878a1015612272578997505b60208e018f01965060208b018c019550600094505b878510156122ef578651865190945092508284146122db5760208811156122b25760001991506122c5565b600185896020030160080260020a031991505b508181168382160380156122db578098506122f5565b602096870196958601959490940193612287565b898d0398505b50505050505050509695505050505050565b8251600090838301111561231a57600080fd5b5091016020012090565b60a081015160c082015182516060926111829281900363ffffffff6110fc16565b60ff84166000908152600360205260408120548190600160a060020a0316151561237257600091506125e0565b61238387600263ffffffff6117bb16565b60ff16600314151561239857600091506125e0565b60ff86166123ad88600363ffffffff6117bb16565b60ff16146123be57600091506125e0565b6123c787612725565b905061ffff808216908616146123e057600091506125e0565b6101006123f488600063ffffffff6110db16565b1661ffff16151561240857600091506125e0565b60ff861660009081526003602090815260408083205490517fde8f50a10000000000000000000000000000000000000000000000000000000081526060600482019081528b5160648301528b51600160a060020a039093169463de8f50a1948d948b948b949384936024830193604484019360840192918a01918190849084905b838110156124a1578181015183820152602001612489565b50505050905090810190601f1680156124ce5780820380516001836020036101000a031916815260200191505b50848103835286518152865160209182019188019080838360005b838110156125015781810151838201526020016124e9565b50505050905090810190601f16801561252e5780820380516001836020036101000a031916815260200191505b50848103825285518152855160209182019187019080838360005b83811015612561578181015183820152602001612549565b50505050905090810190601f16801561258e5780820380516001836020036101000a031916815260200191505b509650505050505050602060405180830381600087803b1580156125b157600080fd5b505af11580156125c5573d6000803e3d6000fd5b505050506040513d60208110156125db57600080fd5b505191505b5095945050505050565b60006125f4612a4b565b60006125fe612a97565b61260f85600063ffffffff61116716565b92505b61261b83611188565b15156127145760a083015161ffff88169061263d90879063ffffffff6110db16565b61ffff161461264b57612706565b8560ff1661266960028560a0015101876117bb90919063ffffffff16565b60ff161461267657612706565b60a083015161268f90869060030163ffffffff6117bb16565b91506126a888518a51018261276a90919063ffffffff16565b506126b9818a63ffffffff6127a216565b506126ca818963ffffffff6127a216565b50805160a084015160c08501516126f892859290916126f3918a9181900363ffffffff6110fc16565b6127bc565b156127065760019350612719565b61270f8361157e565b612612565b600093505b50505095945050505050565b600080805b835181101561275457612743848263ffffffff6110db16565b61ffff16919091019060020161272a565b5061ffff62010000820481169091011692915050565b612772612a97565b60208206156127875760208206602003820191505b50602082018190526040805180845260008152909101905290565b6127aa612a97565b6122078384600001515184855161295d565b60ff8316600090815260046020526040812054600160a060020a031615156127e657506000612207565b60ff84166000908152600460208190526040909120548351600160a060020a039091169163f7e83aee918691612828918791906003190163ffffffff6110fc16565b6040518363ffffffff1660e060020a028152600401808060200180602001838103835285818151815260200191508051906020019080838360005b8381101561287b578181015183820152602001612863565b50505050905090810190601f1680156128a85780820380516001836020036101000a031916815260200191505b50838103825284518152845160209182019186019080838360005b838110156128db5781810151838201526020016128c3565b50505050905090810190601f1680156129085780820380516001836020036101000a031916815260200191505b50945050505050602060405180830381600087803b15801561292957600080fd5b505af115801561293d573d6000803e3d6000fd5b505050506040513d602081101561295357600080fd5b5051949350505050565b612965612a97565b60008060008551851115151561297a57600080fd5b60208801518851518887010111156129a8576129a8886129a08a602001518a8901612a17565b600202612a2e565b8751805188602083010194508089880111156129c45788870182525b60208801935050505b602085106129ef5781518352601f1990940193602092830192909101906129cd565b505181516020949094036101000a600019018019909116931692909217909152509192915050565b600081831115612a28575081611182565b50919050565b8151612a3a838361276a565b50612a4583826127a2565b50505050565b60e0604051908101604052806060815260200160008152602001600061ffff168152602001600061ffff168152602001600063ffffffff16815260200160008152602001600081525090565b604080518082019091526060815260006020820152905600a165627a7a7230582079adc41bdcba1b2bbe8ef7a36293946537476e0983913fe80e2e1a9eb2d68fbf0029",
  "source": "pragma solidity ^0.4.23;\n\nimport \"./Owned.sol\";\nimport \"./Buffer.sol\";\nimport \"./BytesUtils.sol\";\nimport \"./RRUtils.sol\";\nimport \"./Algorithm.sol\";\nimport \"./Digest.sol\";\nimport \"./NSEC3Digest.sol\";\n\n/*\n * @dev An oracle contract that verifies and stores DNSSEC-validated DNS records.\n *\n * TODO: Support for NSEC3 records\n * TODO: Use 'serial number math' for inception/expiration\n */\ncontract DNSSEC is Owned {\n    using Buffer for Buffer.buffer;\n    using BytesUtils for bytes;\n    using RRUtils for *;\n\n    uint16 constant DNSCLASS_IN = 1;\n\n    uint16 constant DNSTYPE_DS = 43;\n    uint16 constant DNSTYPE_RRSIG = 46;\n    uint16 constant DNSTYPE_NSEC = 47;\n    uint16 constant DNSTYPE_DNSKEY = 48;\n    uint16 constant DNSTYPE_NSEC3 = 50;\n\n    uint constant DS_KEY_TAG = 0;\n    uint constant DS_ALGORITHM = 2;\n    uint constant DS_DIGEST_TYPE = 3;\n    uint constant DS_DIGEST = 4;\n\n    uint constant RRSIG_TYPE = 0;\n    uint constant RRSIG_ALGORITHM = 2;\n    uint constant RRSIG_LABELS = 3;\n    uint constant RRSIG_TTL = 4;\n    uint constant RRSIG_EXPIRATION = 8;\n    uint constant RRSIG_INCEPTION = 12;\n    uint constant RRSIG_KEY_TAG = 16;\n    uint constant RRSIG_SIGNER_NAME = 18;\n\n    uint constant DNSKEY_FLAGS = 0;\n    uint constant DNSKEY_PROTOCOL = 2;\n    uint constant DNSKEY_ALGORITHM = 3;\n    uint constant DNSKEY_PUBKEY = 4;\n\n    uint constant DNSKEY_FLAG_ZONEKEY = 0x100;\n\n    uint constant NSEC3_HASH_ALGORITHM = 0;\n    uint constant NSEC3_FLAGS = 1;\n    uint constant NSEC3_ITERATIONS = 2;\n    uint constant NSEC3_SALT_LENGTH = 4;\n    uint constant NSEC3_SALT = 5;\n\n    uint8 constant ALGORITHM_RSASHA256 = 8;\n\n    uint8 constant DIGEST_ALGORITHM_SHA256 = 2;\n\n    struct RRSet {\n        uint32 inception;\n        uint64 inserted;\n        bytes20 hash;\n    }\n\n    // (name, type) => RRSet\n    mapping (bytes32 => mapping(uint16 => RRSet)) rrsets;\n\n    bytes public anchors;\n\n    mapping (uint8 => Algorithm) public algorithms;\n    mapping (uint8 => Digest) public digests;\n    mapping (uint8 => NSEC3Digest) public nsec3Digests;\n\n    event AlgorithmUpdated(uint8 id, address addr);\n    event DigestUpdated(uint8 id, address addr);\n    event NSEC3DigestUpdated(uint8 id, address addr);\n    event RRSetUpdated(bytes name, bytes rrset);\n\n    /**\n     * @dev Constructor.\n     * @param _anchors The binary format RR entries for the root DS records.\n     */\n    constructor(bytes _anchors) public {\n        // Insert the 'trust anchors' - the key hashes that start the chain\n        // of trust for all other records.\n        anchors = _anchors;\n        rrsets[keccak256(\"\u0000\")][DNSTYPE_DS] = RRSet({\n            inception: uint32(0),\n            inserted: uint64(now),\n            hash: bytes20(keccak256(anchors))\n        });\n        emit RRSetUpdated(\"\u0000\", anchors);\n    }\n\n    /**\n     * @dev Sets the contract address for a signature verification algorithm.\n     *      Callable only by the owner.\n     * @param id The algorithm ID\n     * @param algo The address of the algorithm contract.\n     */\n    function setAlgorithm(uint8 id, Algorithm algo) public owner_only {\n        algorithms[id] = algo;\n        emit AlgorithmUpdated(id, algo);\n    }\n\n    /**\n     * @dev Sets the contract address for a digest verification algorithm.\n     *      Callable only by the owner.\n     * @param id The digest ID\n     * @param digest The address of the digest contract.\n     */\n    function setDigest(uint8 id, Digest digest) public owner_only {\n        digests[id] = digest;\n        emit DigestUpdated(id, digest);\n    }\n\n    /**\n     * @dev Sets the contract address for an NSEC3 digest algorithm.\n     *      Callable only by the owner.\n     * @param id The digest ID\n     * @param digest The address of the digest contract.\n     */\n    function setNSEC3Digest(uint8 id, NSEC3Digest digest) public owner_only {\n        nsec3Digests[id] = digest;\n        emit NSEC3DigestUpdated(id, digest);\n    }\n\n    /**\n     * @dev Submits multiple RRSets\n     * @param data The data to submit, as a series of chunks. Each chunk is\n     *        in the format <uint16 length><bytes input><uint16 length><bytes sig>\n     * @param proof The DNSKEY or DS to validate the first signature against.\n     * @return The last RRSET submitted.\n     */\n    function submitRRSets(bytes memory data, bytes memory proof) public returns (bytes) {\n        uint offset = 0;\n        while(offset < data.length) {\n            bytes memory input = data.substring(offset + 2, data.readUint16(offset));\n            offset += input.length + 2;\n            bytes memory sig = data.substring(offset + 2, data.readUint16(offset));\n            offset += sig.length + 2;\n            proof = submitRRSet(input, sig, proof);\n        }\n        return proof;\n    }\n\n    /**\n     * @dev Submits a signed set of RRs to the oracle.\n     *\n     * RRSETs are only accepted if they are signed with a key that is already\n     * trusted, or if they are self-signed, and the signing key is identified by\n     * a DS record that is already trusted.\n     *\n     * @param input The signed RR set. This is in the format described in section\n     *        5.3.2 of RFC4035: The RRDATA section from the RRSIG without the signature\n     *        data, followed by a series of canonicalised RR records that the signature\n     *        applies to.\n     * @param sig The signature data from the RRSIG record.\n     * @param proof The DNSKEY or DS to validate the signature against. Must Already\n     *        have been submitted and proved previously.\n     */\n    function submitRRSet(bytes memory input, bytes memory sig, bytes memory proof)\n        public returns(bytes memory rrs)\n    {\n        bytes memory name;\n        (name, rrs) = validateSignedSet(input, sig, proof);\n\n        uint32 inception = input.readUint32(RRSIG_INCEPTION);\n        uint16 typecovered = input.readUint16(RRSIG_TYPE);\n\n        RRSet storage set = rrsets[keccak256(name)][typecovered];\n        if (set.inserted > 0) {\n            // To replace an existing rrset, the signature must be at least as new\n            require(inception >= set.inception);\n        }\n        if (set.hash == keccak256(rrs)) {\n            // Already inserted!\n            return;\n        }\n\n        rrsets[keccak256(name)][typecovered] = RRSet({\n            inception: inception,\n            inserted: uint64(now),\n            hash: bytes20(keccak256(rrs))\n        });\n        emit RRSetUpdated(name, rrs);\n    }\n\n    /**\n     * @dev Deletes an RR from the oracle.\n     *\n     * @param deleteType The DNS record type to delete.\n     * @param deleteName which you want to delete\n     * @param nsec The signed NSEC RRset. This is in the format described in section\n     *        5.3.2 of RFC4035: The RRDATA section from the RRSIG without the signature\n     *        data, followed by a series of canonicalised RR records that the signature\n     *        applies to.\n     */\n    function deleteRRSet(uint16 deleteType, bytes deleteName, bytes memory nsec, bytes memory sig, bytes memory proof) public {\n        bytes memory nsecName;\n        bytes memory rrs;\n        (nsecName, rrs) = validateSignedSet(nsec, sig, proof);\n\n        // Don't let someone use an old proof to delete a new name\n        require(rrsets[keccak256(deleteName)][deleteType].inception <= nsec.readUint32(RRSIG_INCEPTION));\n\n        for (RRUtils.RRIterator memory iter = rrs.iterateRRs(0); !iter.done(); iter.next()) {\n            // We're dealing with three names here:\n            //   - deleteName is the name the user wants us to delete\n            //   - nsecName is the owner name of the NSEC record\n            //   - nextName is the next name specified in the NSEC record\n            //\n            // And three cases:\n            //   - deleteName equals nsecName, in which case we can delete the\n            //     record if it's not in the type bitmap.\n            //   - nextName comes after nsecName, in which case we can delete\n            //     the record if deleteName comes between nextName and nsecName.\n            //   - nextName comes before nsecName, in which case nextName is the\n            //     zone apez, and deleteName must come after nsecName.\n\n            if(iter.dnstype == DNSTYPE_NSEC) {\n                checkNsecName(iter, nsecName, deleteName, deleteType);\n            } else if(iter.dnstype == DNSTYPE_NSEC3) {\n                checkNsec3Name(iter, nsecName, deleteName, deleteType);\n            } else {\n                revert(\"Unrecognised record type\");\n            }\n\n            delete rrsets[keccak256(deleteName)][deleteType];\n            return;\n        }\n        // This should never reach.\n        revert();\n    }\n\n    function checkNsecName(RRUtils.RRIterator memory iter, bytes memory nsecName, bytes memory deleteName, uint16 deleteType) private pure {\n        uint rdataOffset = iter.rdataOffset;\n        uint nextNameLength = iter.data.nameLength(rdataOffset);\n        uint rDataLength = iter.nextOffset - iter.rdataOffset;\n\n        // We assume that there is always typed bitmap after the next domain name\n        require(rDataLength > nextNameLength);\n\n        int compareResult = deleteName.compareNames(nsecName);\n        if(compareResult == 0) {\n            // Name to delete is on the same label as the NSEC record\n            require(!iter.data.checkTypeBitmap(rdataOffset + nextNameLength, deleteType));\n        } else {\n            // First check if the NSEC next name comes after the NSEC name.\n            bytes memory nextName = iter.data.substring(rdataOffset,nextNameLength);\n            if(nsecName.compareNames(nextName) < 0) {\n                // deleteName must come between nsecName and nextName\n                require(compareResult > 0 && deleteName.compareNames(nextName) < 0);\n            } else {\n                // deleteName must come after nsecName\n                require(compareResult > 0);\n            }\n        }\n    }\n\n    function checkNsec3Name(RRUtils.RRIterator memory iter, bytes memory nsecName, bytes memory deleteName, uint16 deleteType) private view {\n        uint16 iterations = iter.data.readUint16(iter.rdataOffset + NSEC3_ITERATIONS);\n        uint8 saltLength = iter.data.readUint8(iter.rdataOffset + NSEC3_SALT_LENGTH);\n        bytes memory salt = iter.data.substring(iter.rdataOffset + NSEC3_SALT, saltLength);\n        bytes32 deleteNameHash = nsec3Digests[iter.data.readUint8(iter.rdataOffset)].hash(salt, deleteName, iterations);\n\n        uint8 nextLength = iter.data.readUint8(iter.rdataOffset + NSEC3_SALT + saltLength);\n        require(nextLength <= 32);\n        bytes32 nextNameHash = iter.data.readBytesN(iter.rdataOffset + NSEC3_SALT + saltLength + 1, nextLength);\n\n        bytes32 nsecNameHash = nsecName.base32HexDecodeWord(1, uint(nsecName.readUint8(0)));\n\n        if(deleteNameHash == nsecNameHash) {\n            // Name to delete is on the same label as the NSEC record\n            require(!iter.data.checkTypeBitmap(iter.rdataOffset + NSEC3_SALT + saltLength + 1 + nextLength, deleteType));\n        } else {\n            // Check if the NSEC next name comes after the NSEC name.\n            if(nextNameHash > nsecNameHash) {\n                // deleteName must come between nsecName and nextName\n                require(deleteNameHash > nsecNameHash && deleteNameHash < nextNameHash);\n            } else {\n                // deleteName must come after nsecName\n                require(deleteNameHash > nsecNameHash);\n            }\n        }\n    }\n\n    /**\n     * @dev Returns data about the RRs (if any) known to this oracle with the provided type and name.\n     * @param dnstype The DNS record type to query.\n     * @param name The name to query, in DNS label-sequence format.\n     * @return inception The unix timestamp at which the signature for this RRSET was created.\n     * @return inserted The unix timestamp at which this RRSET was inserted into the oracle.\n     * @return hash The hash of the RRset that was inserted.\n     */\n    function rrdata(uint16 dnstype, bytes memory name) public view returns (uint32, uint64, bytes20) {\n        RRSet storage result = rrsets[keccak256(name)][dnstype];\n        return (result.inception, result.inserted, result.hash);\n    }\n\n    /**\n     * @dev Submits a signed set of RRs to the oracle.\n     *\n     * RRSETs are only accepted if they are signed with a key that is already\n     * trusted, or if they are self-signed, and the signing key is identified by\n     * a DS record that is already trusted.\n     *\n     * @param input The signed RR set. This is in the format described in section\n     *        5.3.2 of RFC4035: The RRDATA section from the RRSIG without the signature\n     *        data, followed by a series of canonicalised RR records that the signature\n     *        applies to.\n     * @param sig The signature data from the RRSIG record.\n     * @param proof The DNSKEY or DS to validate the signature against. Must Already\n     *        have been submitted and proved previously.\n     */\n    function validateSignedSet(bytes memory input, bytes memory sig, bytes memory proof) internal view returns(bytes memory name, bytes memory rrs) {\n        require(validProof(input.readName(RRSIG_SIGNER_NAME), proof));\n\n        uint32 inception = input.readUint32(RRSIG_INCEPTION);\n        uint32 expiration = input.readUint32(RRSIG_EXPIRATION);\n        uint16 typecovered = input.readUint16(RRSIG_TYPE);\n        uint8 labels = input.readUint8(RRSIG_LABELS);\n\n        // Extract the RR data\n        uint rrdataOffset = input.nameLength(RRSIG_SIGNER_NAME) + 18;\n        rrs = input.substring(rrdataOffset, input.length - rrdataOffset);\n\n        // Do some basic checks on the RRs and extract the name\n        name = validateRRs(rrs, typecovered);\n        checkNameLabels(name, labels);\n\n        // Validate the signature\n        verifySignature(name, input, sig, proof);\n\n        // TODO: Check inception and expiration using mod2^32 math\n\n        // o  The validator's notion of the current time MUST be less than or\n        //    equal to the time listed in the RRSIG RR's Expiration field.\n        require(expiration > now);\n\n        // o  The validator's notion of the current time MUST be greater than or\n        //    equal to the time listed in the RRSIG RR's Inception field.\n        require(inception < now);\n    }\n\n    function validProof(bytes name, bytes memory proof) internal view returns(bool) {\n        uint16 dnstype = proof.readUint16(proof.nameLength(0));\n        return rrsets[keccak256(name)][dnstype].hash == bytes20(keccak256(proof));\n    }\n\n    /**\n     * @dev Validates a set of RRs.\n     * @param data The RR data.\n     * @param typecovered The type covered by the RRSIG record.\n     */\n    function validateRRs(bytes memory data, uint16 typecovered) internal pure returns (bytes memory name) {\n        // Iterate over all the RRs\n        for (RRUtils.RRIterator memory iter = data.iterateRRs(0); !iter.done(); iter.next()) {\n            // We only support class IN (Internet)\n            require(iter.class == DNSCLASS_IN);\n\n            if(name.length == 0) {\n                name = iter.name();\n            } else {\n                // Name must be the same on all RRs\n                require(name.length == data.nameLength(iter.offset));\n                require(name.equals(0, data, iter.offset, name.length));\n            }\n\n            // o  The RRSIG RR's Type Covered field MUST equal the RRset's type.\n            require(iter.dnstype == typecovered);\n        }\n    }\n\n    function checkNameLabels(bytes memory name, uint8 labels) internal pure {\n        uint nameLabels = name.labelCount(0);\n        // The name must either have the specified number of labels, or have a\n        // \"*.\".\n        require(nameLabels == labels || (nameLabels == labels + 1 && name.readUint16(0) == 0x012A));\n    }\n\n    /**\n     * @dev Performs signature verification.\n     *\n     * Throws or reverts if unable to verify the record.\n     *\n     * @param name The name of the RRSIG record, in DNS label-sequence format.\n     * @param data The original data to verify.\n     * @param sig The signature data.\n     */\n    function verifySignature(bytes name, bytes memory data, bytes memory sig, bytes memory proof) internal view {\n        uint signerNameLength = data.nameLength(RRSIG_SIGNER_NAME);\n\n        // o  The RRSIG RR's Signer's Name field MUST be the name of the zone\n        //    that contains the RRset.\n        require(signerNameLength <= name.length);\n        require(data.equals(RRSIG_SIGNER_NAME, name, name.length - signerNameLength, signerNameLength));\n\n        // Set the return offset to point at the first RR\n        uint offset = 18 + signerNameLength;\n\n        // Check the proof\n        uint16 dnstype = proof.readUint16(proof.nameLength(0));\n        if (dnstype == DNSTYPE_DS) {\n            require(verifyWithDS(data, sig, offset, proof));\n        } else if (dnstype == DNSTYPE_DNSKEY) {\n            require(verifyWithKnownKey(data, sig, proof));\n        } else {\n            revert(\"Unsupported proof record type\");\n        }\n    }\n\n    /**\n     * @dev Attempts to verify a signed RRSET against an already known public key.\n     * @param data The original data to verify.\n     * @param sig The signature data.\n     * @return True if the RRSET could be verified, false otherwise.\n     */\n    function verifyWithKnownKey(bytes memory data, bytes memory sig, bytes memory proof) internal view returns(bool) {\n        uint signerNameLength = data.nameLength(RRSIG_SIGNER_NAME);\n\n        // Extract algorithm and keytag\n        uint8 algorithm = data.readUint8(RRSIG_ALGORITHM);\n        uint16 keytag = data.readUint16(RRSIG_KEY_TAG);\n\n        for (RRUtils.RRIterator memory iter = proof.iterateRRs(0); !iter.done(); iter.next()) {\n            // Check the DNSKEY's owner name matches the signer name on the RRSIG\n            require(proof.nameLength(0) == signerNameLength);\n            require(proof.equals(0, data, RRSIG_SIGNER_NAME, signerNameLength));\n            if (verifySignatureWithKey(iter.rdata(), algorithm, keytag, data, sig)) {\n                return true;\n            }\n        }\n\n        return false;\n    }\n\n    /**\n     * @dev Attempts to verify a signed RRSET against an already known public key.\n     * @param data The original data to verify.\n     * @param sig The signature data.\n     * @param offset The offset from the start of the data to the first RR.\n     * @return True if the RRSET could be verified, false otherwise.\n     */\n    function verifyWithDS(bytes memory data, bytes memory sig, uint offset, bytes memory proof) internal view returns(bool) {\n        // Extract algorithm and keytag\n        uint8 algorithm = data.readUint8(RRSIG_ALGORITHM);\n        uint16 keytag = data.readUint16(RRSIG_KEY_TAG);\n\n        // Perhaps it's self-signed and verified by a DS record?\n        for (RRUtils.RRIterator memory iter = data.iterateRRs(offset); !iter.done(); iter.next()) {\n            if (iter.dnstype != DNSTYPE_DNSKEY) {\n                return false;\n            }\n\n            bytes memory keyrdata = iter.rdata();\n            if (verifySignatureWithKey(keyrdata, algorithm, keytag, data, sig)) {\n                // It's self-signed - look for a DS record to verify it.\n                if (verifyKeyWithDS(iter.name(), keyrdata, keytag, algorithm, proof)) {\n                    return true;\n                }\n                // If we found a valid signature but no valid DS, no use checking other records too.\n                return false;\n            }\n        }\n\n        return false;\n    }\n\n    /**\n     * @dev Attempts to verify some data using a provided key and a signature.\n     * @param keyrdata The RDATA section of the key to use.\n     * @param algorithm The algorithm ID of the key and signature.\n     * @param keytag The keytag from the signature.\n     * @param data The data to verify.\n     * @param sig The signature to use.\n     * @return True iff the key verifies the signature.\n     */\n    function verifySignatureWithKey(bytes memory keyrdata, uint8 algorithm, uint16 keytag, bytes data, bytes sig) internal view returns (bool) {\n        if (algorithms[algorithm] == address(0)) {\n            return false;\n        }\n        // TODO: Check key isn't expired, unless updating key itself\n\n        // o The RRSIG RR's Signer's Name, Algorithm, and Key Tag fields MUST\n        //   match the owner name, algorithm, and key tag for some DNSKEY RR in\n        //   the zone's apex DNSKEY RRset.\n        if (keyrdata.readUint8(DNSKEY_PROTOCOL) != 3) {\n            return false;\n        }\n        if (keyrdata.readUint8(DNSKEY_ALGORITHM) != algorithm) {\n            return false;\n        }\n        uint16 computedkeytag = computeKeytag(keyrdata);\n        if (computedkeytag != keytag) {\n            return false;\n        }\n\n        // o The matching DNSKEY RR MUST be present in the zone's apex DNSKEY\n        //   RRset, and MUST have the Zone Flag bit (DNSKEY RDATA Flag bit 7)\n        //   set.\n        if (keyrdata.readUint16(DNSKEY_FLAGS) & DNSKEY_FLAG_ZONEKEY == 0) {\n            return false;\n        }\n\n        return algorithms[algorithm].verify(keyrdata, data, sig);\n    }\n\n    /**\n     * @dev Attempts to verify a key using DS records.\n     * @param keyname The DNS name of the key, in DNS label-sequence format.\n     * @param keyrdata The RDATA section of the key.\n     * @param keytag The keytag of the key.\n     * @param algorithm The algorithm ID of the key.\n     * @return True if a DS record verifies this key.\n     */\n    function verifyKeyWithDS(bytes memory keyname, bytes memory keyrdata, uint16 keytag, uint8 algorithm, bytes memory data)\n        internal view returns (bool)\n    {\n        for (RRUtils.RRIterator memory iter = data.iterateRRs(0); !iter.done(); iter.next()) {\n            if (data.readUint16(iter.rdataOffset + DS_KEY_TAG) != keytag) {\n                continue;\n            }\n            if (data.readUint8(iter.rdataOffset + DS_ALGORITHM) != algorithm) {\n                continue;\n            }\n\n            uint8 digesttype = data.readUint8(iter.rdataOffset + DS_DIGEST_TYPE);\n            Buffer.buffer memory buf;\n            buf.init(keyname.length + keyrdata.length);\n            buf.append(keyname);\n            buf.append(keyrdata);\n            if (verifyDSHash(digesttype, buf.buf, data.substring(iter.rdataOffset, iter.nextOffset - iter.rdataOffset))) {\n                return true;\n            }\n        }\n        return false;\n    }\n\n    /**\n     * @dev Attempts to verify a DS record's hash value against some data.\n     * @param digesttype The digest ID from the DS record.\n     * @param data The data to digest.\n     * @param digest The digest data to check against.\n     * @return True iff the digest matches.\n     */\n    function verifyDSHash(uint8 digesttype, bytes data, bytes digest) internal view returns (bool) {\n        if (digests[digesttype] == address(0)) {\n            return false;\n        }\n        return digests[digesttype].verify(data, digest.substring(4, digest.length - 4));\n    }\n\n    /**\n     * @dev Computes the keytag for a chunk of data.\n     * @param data The data to compute a keytag for.\n     * @return The computed key tag.\n     */\n    function computeKeytag(bytes memory data) internal pure returns (uint16) {\n        uint ac;\n        for (uint i = 0; i < data.length; i += 2) {\n            ac += data.readUint16(i);\n        }\n        ac += (ac >> 16) & 0xFFFF;\n        return uint16(ac & 0xFFFF);\n    }\n}\n",
  "sourcePath": "/Users/nickjohnson/drive/projects/enssec/contracts/DNSSEC.sol",
  "compiler": {
    "name": "solc",
    "version": "0.4.24+commit.e67f0147.Emscripten.clang"
  },
  "schemaVersion": "2.0.1",
  "updatedAt": "2018-08-25T20:49:48.130Z"
}