{
  "contractName": "SHA1Digest",
  "abi": [
    {
      "constant": true,
      "inputs": [
        {
          "name": "data",
          "type": "bytes"
        },
        {
          "name": "hash",
          "type": "bytes"
        }
      ],
      "name": "verify",
      "outputs": [
        {
          "name": "",
          "type": "bool"
        }
      ],
      "payable": false,
      "stateMutability": "pure",
      "type": "function"
    }
  ],
  "bytecode": "0x608060405234801561001057600080fd5b5061065e806100206000396000f3006080604052600436106100405763ffffffff7c0100000000000000000000000000000000000000000000000000000000600035041663f7e83aee8114610045575b600080fd5b34801561005157600080fd5b506100716024600480358281019290820135918135918201910135610085565b604080519115158252519081900360200190f35b60008060006100ce600086868080601f01602080910402602001604051908101604052809392919081815260200183838082843750949594505063ffffffff6101351692505050565b6bffffffffffffffffffffffff1916915061011887878080601f01602080910402602001604051908101604052809392919081815260200183838082843750610161945050505050565b6bffffffffffffffffffffffff1916919091149695505050505050565b815160009060148301111561014957600080fd5b5001602001516bffffffffffffffffffffffff191690565b60006040518251602084019350604067ffffffffffffffc06001830116016009828203106001811461019257610199565b6040820191505b50776745230100efcdab890098badcfe001032547600c3d2e1f06101ec565b6000838310156101e5575080820151928290039260208410156101e55760001960208590036101000a0119165b9392505050565b60005b828110156105b2576102028482896101b8565b85526102128460208301896101b8565b60208601526040818503106001811461022a57610233565b60808286038701535b506040830381146001811461024757610255565b602086018051600887021790525b5060405b60808110156102dd57858101603f19810151603719820151601f19830151600b198401516002911891909218189081027ffffffffefffffffefffffffefffffffefffffffefffffffefffffffefffffffe1663800000009091047c010000000100000001000000010000000100000001000000010000000116179052600c01610259565b5060805b61014081101561036657858101607f19810151606f19820151603f198301516017198401516004911891909218189081027ffffffffcfffffffcfffffffcfffffffcfffffffcfffffffcfffffffcfffffffc1663400000009091047c0300000003000000030000000300000003000000030000000300000003161790526018016102e1565b508160008060005b60508110156105885760148104801561039e57600181146103da5760028114610414576003811461045357610489565b6501000000000085046a0100000000000000000000860481186f01000000000000000000000000000000870416189350635a8279999250610489565b6501000000000085046f0100000000000000000000000000000086046a0100000000000000000000870418189350636ed9eba19250610489565b6a010000000000000000000085046f010000000000000000000000000000008604818117650100000000008804169116179350638f1bbcdc9250610489565b6501000000000085046f0100000000000000000000000000000086046a010000000000000000000087041818935063ca62c1d692505b50601f770800000000000000000000000000000000000000000000008504168063ffffffe073080000000000000000000000000000000000000087041617905080840190508063ffffffff86160190508083019050807c0100000000000000000000000000000000000000000000000000000000600484028c0151040190507401000000000000000000000000000000000000000081026501000000000086041794506a0100000000000000000000633fffffff6a040000000000000000000087041663c00000006604000000000000880416170277ffffffff00ffffffff000000000000ffffffff00ffffffff86161794505060018101905061036e565b5050509190910177ffffffff00ffffffff00ffffffff00ffffffff00ffffffff16906040016101ef565b506c0100000000000000000000000063ffffffff821667ffffffff000000006101008404166bffffffff0000000000000000620100008504166fffffffff000000000000000000000000630100000086041673ffffffff0000000000000000000000000000000064010000000087041617171717029450505050509190505600a165627a7a72305820a65896f0cd2b2a50c4b28cbdfca0ff45c10557410b4e09ccc514c8e18524d1ad0029",
  "source": "pragma solidity ^0.4.23;\n\nimport \"./Digest.sol\";\nimport \"./BytesUtils.sol\";\nimport \"./sha1/contracts/sha1.sol\";\n\n/**\n* @dev Implements the DNSSEC SHA1 digest.\n*/\ncontract SHA1Digest {\n    using BytesUtils for *;\n\n    function verify(bytes data, bytes hash) external pure returns (bool) {\n        bytes32 expected = hash.readBytes20(0);\n        bytes20 computed = SHA1.sha1(data);\n        return expected == computed;\n    }\n}\n",
  "sourcePath": "/Users/nickjohnson/drive/projects/enssec/contracts/SHA1Digest.sol",
  "compiler": {
    "name": "solc",
    "version": "0.4.24+commit.e67f0147.Emscripten.clang"
  },
  "schemaVersion": "2.0.1",
  "updatedAt": "2018-08-25T20:49:48.097Z"
}