{
  "contractName": "SHA1NSEC3Digest",
  "abi": [
    {
      "constant": true,
      "inputs": [
        {
          "name": "salt",
          "type": "bytes"
        },
        {
          "name": "data",
          "type": "bytes"
        },
        {
          "name": "iterations",
          "type": "uint256"
        }
      ],
      "name": "hash",
      "outputs": [
        {
          "name": "",
          "type": "bytes32"
        }
      ],
      "payable": false,
      "stateMutability": "pure",
      "type": "function"
    }
  ],
  "bytecode": "0x608060405234801561001057600080fd5b5061092e806100206000396000f3006080604052600436106100405763ffffffff7c010000000000000000000000000000000000000000000000000000000060003504166368f9dab28114610045575b600080fd5b34801561005157600080fd5b506100746024600480358281019290820135918135918201910135604435610086565b60408051918252519081900360200190f35b60006100906108ea565b6000806100a88360108a89010163ffffffff6101f416565b506100eb87878080601f01602080910402602001604051908101604052809392919081815260200183838082843750899594505063ffffffff6102301692505050565b5061012e89898080601f01602080910402602001604051908101604052809392919081815260200183838082843750899594505063ffffffff6102301692505050565b50825161013a90610251565b915060008511156101d95761014e83610721565b5061016083600063ffffffff61073316565b506101a389898080601f01602080910402602001604051908101604052809392919081815260200183838082843750899594505063ffffffff6102301692505050565b50600090505b848110156101d9576101c38360008463ffffffff61075b16565b5082516101cf90610251565b91506001016101a9565b506bffffffffffffffffffffffff1916979650505050505050565b6101fc6108ea565b60208206156102115760208206602003820191505b5060208201819052604080518084526000815282019052815b92915050565b6102386108ea565b61024a83846000015151848551610787565b9392505050565b60006040518251602084019350604067ffffffffffffffc06001830116016009828203106001811461028257610289565b6040820191505b50776745230100efcdab890098badcfe001032547600c3d2e1f06102db565b60008383101561024a5750808201519282900392602084101561024a5760001960208590036101000a0119169392505050565b60005b828110156106a1576102f18482896102a8565b85526103018460208301896102a8565b60208601526040818503106001811461031957610322565b60808286038701535b506040830381146001811461033657610344565b602086018051600887021790525b5060405b60808110156103cc57858101603f19810151603719820151601f19830151600b198401516002911891909218189081027ffffffffefffffffefffffffefffffffefffffffefffffffefffffffefffffffe1663800000009091047c010000000100000001000000010000000100000001000000010000000116179052600c01610348565b5060805b61014081101561045557858101607f19810151606f19820151603f198301516017198401516004911891909218189081027ffffffffcfffffffcfffffffcfffffffcfffffffcfffffffcfffffffcfffffffc1663400000009091047c0300000003000000030000000300000003000000030000000300000003161790526018016103d0565b508160008060005b60508110156106775760148104801561048d57600181146104c95760028114610503576003811461054257610578565b6501000000000085046a0100000000000000000000860481186f01000000000000000000000000000000870416189350635a8279999250610578565b6501000000000085046f0100000000000000000000000000000086046a0100000000000000000000870418189350636ed9eba19250610578565b6a010000000000000000000085046f010000000000000000000000000000008604818117650100000000008804169116179350638f1bbcdc9250610578565b6501000000000085046f0100000000000000000000000000000086046a010000000000000000000087041818935063ca62c1d692505b50601f770800000000000000000000000000000000000000000000008504168063ffffffe073080000000000000000000000000000000000000087041617905080840190508063ffffffff86160190508083019050807c0100000000000000000000000000000000000000000000000000000000600484028c0151040190507401000000000000000000000000000000000000000081026501000000000086041794506a0100000000000000000000633fffffff6a040000000000000000000087041663c00000006604000000000000880416170277ffffffff00ffffffff000000000000ffffffff00ffffffff86161794505060018101905061045d565b5050509190910177ffffffff00ffffffff00ffffffff00ffffffff00ffffffff16906040016102de565b506c0100000000000000000000000063ffffffff821667ffffffff000000006101008404166bffffffff0000000000000000620100008504166fffffffff000000000000000000000000630100000086041673ffffffff000000000000000000000000000000006401000000008704161717171702945050505050919050565b6107296108ea565b5080516000905290565b61073b6108ea565b82515161024a9084906bffffffffffffffffffffffff1985166014610841565b6107636108ea565b61077f84846bffffffffffffffffffffffff1985166014610841565b949350505050565b61078f6108ea565b6000806000855185111515156107a457600080fd5b60208801518851518887010111156107d2576107d2886107ca8a602001518a89016108b6565b6002026108cd565b8751805188602083010194508089880111156107ee5788870182525b60208801935050505b602085106108195781518352601f1990940193602092830192909101906107f7565b505181516020949094036101000a600019018019909116931692909217909152509192915050565b6108496108ea565b60008560200151858401111561086b5761086b866107ca8860200151866108b6565b6001836101000a0390508260200360080284600019169060020a9004935085518386820101858319825116178152815185880111156108aa5784870182525b50959695505050505050565b6000818311156108c757508161022a565b50919050565b81516108d983836101f4565b506108e48382610230565b50505050565b604080518082019091526060815260006020820152905600a165627a7a72305820c90bba069b5cc96819f3313489f5255691124f6c0a79758e931c2e251d8567270029",
  "source": "pragma solidity ^0.4.23;\n\nimport \"./NSEC3Digest.sol\";\nimport \"./sha1/contracts/sha1.sol\";\nimport \"./Buffer.sol\";\n\n/**\n* @dev Implements the DNSSEC iterated SHA1 digest used for NSEC3 records.\n*/\ncontract SHA1NSEC3Digest is NSEC3Digest {\n    using Buffer for Buffer.buffer;\n\n    function hash(bytes salt, bytes data, uint iterations) external pure returns (bytes32) {\n        Buffer.buffer memory buf;\n        buf.init(salt.length + data.length + 16);\n\n        buf.append(data);\n        buf.append(salt);\n        bytes20 h = SHA1.sha1(buf.buf);\n        if (iterations > 0) {\n            buf.truncate();\n            buf.appendBytes20(bytes20(0));\n            buf.append(salt);\n\n            for (uint i = 0; i < iterations; i++) {\n                buf.writeBytes20(0, h);\n                h = SHA1.sha1(buf.buf);\n            }\n        }\n\n        return bytes32(h);\n    }\n}\n",
  "sourcePath": "/Users/nickjohnson/drive/projects/enssec/contracts/SHA1NSEC3Digest.sol",
  "compiler": {
    "name": "solc",
    "version": "0.4.24+commit.e67f0147.Emscripten.clang"
  },
  "schemaVersion": "2.0.1",
  "updatedAt": "2018-08-25T20:49:48.099Z"
}