{
  "contractName": "RSASHA1Algorithm",
  "abi": [
    {
      "constant": true,
      "inputs": [
        {
          "name": "key",
          "type": "bytes"
        },
        {
          "name": "data",
          "type": "bytes"
        },
        {
          "name": "sig",
          "type": "bytes"
        }
      ],
      "name": "verify",
      "outputs": [
        {
          "name": "",
          "type": "bool"
        }
      ],
      "payable": false,
      "stateMutability": "view",
      "type": "function"
    }
  ],
  "bytecode": "0x608060405234801561001057600080fd5b50610c52806100206000396000f3006080604052600436106100405763ffffffff7c0100000000000000000000000000000000000000000000000000000000600035041663de8f50a18114610045575b600080fd5b34801561005157600080fd5b5061007d6024600480358281019290820135918135808301929082013591604435918201910135610091565b604080519115158252519081900360200190f35b600060608060008060606100df60048d8d8080601f01602080910402602001604051908101604052809392919081815260200183838082843750949594505063ffffffff61034a1692505050565b60ff16925082156101955761013460058461ffff168e8e8080601f0160208091040260200160405190810160405280939291908181526020018383808284375094969594505063ffffffff61036a1692505050565b945061018e8360050161ffff1660058561ffff168f8f905003038e8e8080601f0160208091040260200160405190810160405280939291908181526020018383808284375094969594505063ffffffff61036a1692505050565b9350610282565b6101d960058d8d8080601f01602080910402602001604051908101604052809392919081815260200183838082843750949594505063ffffffff6103d51692505050565b925061022560078461ffff168e8e8080601f0160208091040260200160405190810160405280939291908181526020018383808284375094969594505063ffffffff61036a1692505050565b945061027f8360070161ffff1660078561ffff168f8f905003038e8e8080601f0160208091040260200160405190810160405280939291908181526020018383808284375094969594505063ffffffff61036a1692505050565b93505b6102bd84868a8a8080601f016020809104026020016040519081016040528093929190818152602001838380828437506103f6945050505050565b909250905081801561033a575080516102e19082906013190163ffffffff61041116565b6bffffffffffffffffffffffff19166103298b8b8080601f0160208091040260200160405190810160405280939291908181526020018383808284375061043d945050505050565b6bffffffffffffffffffffffff1916145b9c9b505050505050505050505050565b815160009060018301111561035e57600080fd5b50016001015160ff1690565b60608060008086518587011115151561038257600080fd5b846040519080825280601f01601f1916602001820160405280156103b0578160200160208202803883390190505b5092505060208083019150868601016103ca82828761090e565b509095945050505050565b81516000906002830111156103e957600080fd5b50016002015161ffff1690565b60006060610405838587610952565b91509150935093915050565b815160009060148301111561042557600080fd5b5001602001516bffffffffffffffffffffffff191690565b60006040518251602084019350604067ffffffffffffffc06001830116016009828203106001811461046e57610475565b6040820191505b50776745230100efcdab890098badcfe001032547600c3d2e1f06104c8565b6000838310156104c1575080820151928290039260208410156104c15760001960208590036101000a0119165b9392505050565b60005b8281101561088e576104de848289610494565b85526104ee846020830189610494565b6020860152604081850310600181146105065761050f565b60808286038701535b506040830381146001811461052357610531565b602086018051600887021790525b5060405b60808110156105b957858101603f19810151603719820151601f19830151600b198401516002911891909218189081027ffffffffefffffffefffffffefffffffefffffffefffffffefffffffefffffffe1663800000009091047c010000000100000001000000010000000100000001000000010000000116179052600c01610535565b5060805b61014081101561064257858101607f19810151606f19820151603f198301516017198401516004911891909218189081027ffffffffcfffffffcfffffffcfffffffcfffffffcfffffffcfffffffcfffffffc1663400000009091047c0300000003000000030000000300000003000000030000000300000003161790526018016105bd565b508160008060005b60508110156108645760148104801561067a57600181146106b657600281146106f0576003811461072f57610765565b6501000000000085046a0100000000000000000000860481186f01000000000000000000000000000000870416189350635a8279999250610765565b6501000000000085046f0100000000000000000000000000000086046a0100000000000000000000870418189350636ed9eba19250610765565b6a010000000000000000000085046f010000000000000000000000000000008604818117650100000000008804169116179350638f1bbcdc9250610765565b6501000000000085046f0100000000000000000000000000000086046a010000000000000000000087041818935063ca62c1d692505b50601f770800000000000000000000000000000000000000000000008504168063ffffffe073080000000000000000000000000000000000000087041617905080840190508063ffffffff86160190508083019050807c0100000000000000000000000000000000000000000000000000000000600484028c0151040190507401000000000000000000000000000000000000000081026501000000000086041794506a0100000000000000000000633fffffff6a040000000000000000000087041663c00000006604000000000000880416170277ffffffff00ffffffff000000000000ffffffff00ffffffff86161794505060018101905061064a565b5050509190910177ffffffff00ffffffff00ffffffff00ffffffff00ffffffff16906040016104cb565b506c0100000000000000000000000063ffffffff821667ffffffff000000006101008404166bffffffff0000000000000000620100008504166fffffffff000000000000000000000000630100000086041673ffffffff000000000000000000000000000000006401000000008704161717171702945050505050919050565b60005b60208210610933578251845260209384019390920191601f1990910190610911565b50905182516020929092036101000a6000190180199091169116179052565b600060606000610960610c0e565b8451865188510101606001915061097d818363ffffffff610a3b16565b50865161099190829063ffffffff610a7716565b5085516109a590829063ffffffff610a7716565b5084516109b990829063ffffffff610a7716565b506109ca818863ffffffff610a9116565b506109db818763ffffffff610a9116565b506109ec818663ffffffff610a9116565b5084516040519080825280601f01601f191660200182016040528015610a1c578160200160208202803883390190505b50925084516020840183602084510160055afa93505050935093915050565b610a43610c0e565b6020820615610a585760208206602003820191505b5060208201819052604080518084526000815282019052815b92915050565b610a7f610c0e565b6104c183846000015151846020610aab565b610a99610c0e565b6104c183846000015151848551610b28565b610ab3610c0e565b600085602001518584011115610add57610add86610ad5886020015186610bda565b600202610bf1565b6001836101000a0390508260200360080284600019169060020a900493508551838682010185831982511617815281518588011115610b1c5784870182525b50959695505050505050565b610b30610c0e565b600080600085518511151515610b4557600080fd5b6020880151885151888701011115610b6b57610b6b88610ad58a602001518a8901610bda565b875180518860208301019450808988011115610b875788870182525b60208801935050505b60208510610bb25781518352601f199094019360209283019290910190610b90565b505181516020949094036101000a600019018019909116931692909217909152509192915050565b600081831115610beb575081610a71565b50919050565b8151610bfd8383610a3b565b50610c088382610a91565b50505050565b604080518082019091526060815260006020820152905600a165627a7a723058202a889825c7409b968f86445a4b6efde417724d0ccdf1223399faf881b513fdbb0029",
  "source": "pragma solidity ^0.4.23;\n\nimport \"./Algorithm.sol\";\nimport \"./BytesUtils.sol\";\nimport \"./RSAVerify.sol\";\nimport \"./sha1/contracts/sha1.sol\";\n\n/**\n* @dev Implements the DNSSEC RSASHA1 algorithm.\n*/\ncontract RSASHA1Algorithm is Algorithm {\n    using BytesUtils for *;\n\n    function verify(bytes key, bytes data, bytes sig) external view returns (bool) {\n        bytes memory exponent;\n        bytes memory modulus;\n\n        uint16 exponentLen = uint16(key.readUint8(4));\n        if (exponentLen != 0) {\n            exponent = key.substring(5, exponentLen);\n            modulus = key.substring(exponentLen + 5, key.length - exponentLen - 5);\n        } else {\n            exponentLen = key.readUint16(5);\n            exponent = key.substring(7, exponentLen);\n            modulus = key.substring(exponentLen + 7, key.length - exponentLen - 7);\n        }\n\n        // Recover the message from the signature\n        bool ok;\n        bytes memory result;\n        (ok, result) = RSAVerify.rsarecover(modulus, exponent, sig);\n\n        // Verify it ends with the hash of our data\n        return ok && SHA1.sha1(data) == result.readBytes20(result.length - 20);\n    }\n}\n",
  "sourcePath": "/Users/nickjohnson/drive/projects/enssec/contracts/RSASHA1Algorithm.sol",
  "compiler": {
    "name": "solc",
    "version": "0.4.24+commit.e67f0147.Emscripten.clang"
  },
  "schemaVersion": "2.0.1",
  "updatedAt": "2018-08-25T20:49:48.093Z"
}