{
  "contractName": "SHA256Digest",
  "abi": [
    {
      "constant": true,
      "inputs": [
        {
          "name": "data",
          "type": "bytes"
        },
        {
          "name": "hash",
          "type": "bytes"
        }
      ],
      "name": "verify",
      "outputs": [
        {
          "name": "",
          "type": "bool"
        }
      ],
      "payable": false,
      "stateMutability": "pure",
      "type": "function"
    }
  ],
  "bytecode": "0x608060405234801561001057600080fd5b506101b8806100206000396000f300608060405260043610610041576000357c0100000000000000000000000000000000000000000000000000000000900463ffffffff168063f7e83aee14610046575b600080fd5b34801561005257600080fd5b506100976004803603810190808035906020019082018035906020019190919293919293908035906020019082018035906020019190919293919293905050506100b1565b604051808215151515815260200191505060405180910390f35b60006100f9600084848080601f01602080910402602001604051908101604052809392919081815260200183838082843782019150505050505061016890919063ffffffff16565b6000191660028686604051808383808284378201915050925050506020604051808303816000865af1158015610133573d6000803e3d6000fd5b5050506040513d602081101561014857600080fd5b810190808051906020019092919050505060001916149050949350505050565b60008251602083011115151561017d57600080fd5b816020840101519050929150505600a165627a7a72305820a56f3c47c897a49a152460311ebb0aa7e1f8e4bf20dd3505ed13e1520d82ac7e0029",
  "source": "pragma solidity ^0.4.23;\n\nimport \"./Digest.sol\";\nimport \"../BytesUtils.sol\";\n\n/**\n* @dev Implements the DNSSEC SHA256 digest.\n*/\ncontract SHA256Digest is Digest {\n    using BytesUtils for *;\n\n    function verify(bytes data, bytes hash) external pure returns (bool) {\n        return sha256(data) == hash.readBytes32(0);\n    }\n}\n",
  "sourcePath": "/Users/makoto/work/ens/dnssec-oracle/contracts/digests/SHA256Digest.sol",
  "compiler": {
    "name": "solc",
    "version": "0.4.24+commit.e67f0147.Emscripten.clang"
  },
  "schemaVersion": "2.0.1",
  "updatedAt": "2018-09-04T09:40:39.251Z"
}